{
  "contractName": "RewardStaking",
  "abi": [
    {
      "inputs": [
        {
          "internalType": "contract ERC20",
          "name": "_busdxToken",
          "type": "address"
        },
        {
          "internalType": "string",
          "name": "_name",
          "type": "string"
        },
        {
          "internalType": "address",
          "name": "_rewardsDistribution",
          "type": "address"
        },
        {
          "internalType": "address",
          "name": "_ownerAddress",
          "type": "address"
        }
      ],
      "stateMutability": "nonpayable",
      "type": "constructor"
    },
    {
      "anonymous": false,
      "inputs": [
        {
          "indexed": true,
          "internalType": "address",
          "name": "previousOwner",
          "type": "address"
        },
        {
          "indexed": true,
          "internalType": "address",
          "name": "newOwner",
          "type": "address"
        }
      ],
      "name": "OwnershipTransferred",
      "type": "event"
    },
    {
      "anonymous": false,
      "inputs": [
        {
          "indexed": false,
          "internalType": "address",
          "name": "account",
          "type": "address"
        }
      ],
      "name": "Paused",
      "type": "event"
    },
    {
      "anonymous": false,
      "inputs": [
        {
          "indexed": false,
          "internalType": "address",
          "name": "token",
          "type": "address"
        },
        {
          "indexed": false,
          "internalType": "uint256",
          "name": "amount",
          "type": "uint256"
        }
      ],
      "name": "Recovered",
      "type": "event"
    },
    {
      "anonymous": false,
      "inputs": [
        {
          "indexed": false,
          "internalType": "uint256",
          "name": "reward",
          "type": "uint256"
        }
      ],
      "name": "RewardAdded",
      "type": "event"
    },
    {
      "anonymous": false,
      "inputs": [
        {
          "indexed": true,
          "internalType": "address",
          "name": "user",
          "type": "address"
        },
        {
          "indexed": false,
          "internalType": "uint256",
          "name": "reward",
          "type": "uint256"
        }
      ],
      "name": "RewardPaid",
      "type": "event"
    },
    {
      "anonymous": false,
      "inputs": [
        {
          "indexed": false,
          "internalType": "uint256",
          "name": "newDuration",
          "type": "uint256"
        }
      ],
      "name": "RewardsDurationUpdated",
      "type": "event"
    },
    {
      "anonymous": false,
      "inputs": [
        {
          "indexed": true,
          "internalType": "bytes32",
          "name": "role",
          "type": "bytes32"
        },
        {
          "indexed": true,
          "internalType": "bytes32",
          "name": "previousAdminRole",
          "type": "bytes32"
        },
        {
          "indexed": true,
          "internalType": "bytes32",
          "name": "newAdminRole",
          "type": "bytes32"
        }
      ],
      "name": "RoleAdminChanged",
      "type": "event"
    },
    {
      "anonymous": false,
      "inputs": [
        {
          "indexed": true,
          "internalType": "bytes32",
          "name": "role",
          "type": "bytes32"
        },
        {
          "indexed": true,
          "internalType": "address",
          "name": "account",
          "type": "address"
        },
        {
          "indexed": true,
          "internalType": "address",
          "name": "sender",
          "type": "address"
        }
      ],
      "name": "RoleGranted",
      "type": "event"
    },
    {
      "anonymous": false,
      "inputs": [
        {
          "indexed": true,
          "internalType": "bytes32",
          "name": "role",
          "type": "bytes32"
        },
        {
          "indexed": true,
          "internalType": "address",
          "name": "account",
          "type": "address"
        },
        {
          "indexed": true,
          "internalType": "address",
          "name": "sender",
          "type": "address"
        }
      ],
      "name": "RoleRevoked",
      "type": "event"
    },
    {
      "anonymous": false,
      "inputs": [
        {
          "indexed": true,
          "internalType": "address",
          "name": "user",
          "type": "address"
        },
        {
          "indexed": false,
          "internalType": "uint256",
          "name": "amount",
          "type": "uint256"
        }
      ],
      "name": "Staked",
      "type": "event"
    },
    {
      "anonymous": false,
      "inputs": [
        {
          "indexed": false,
          "internalType": "address",
          "name": "account",
          "type": "address"
        }
      ],
      "name": "Unpaused",
      "type": "event"
    },
    {
      "anonymous": false,
      "inputs": [
        {
          "indexed": true,
          "internalType": "address",
          "name": "user",
          "type": "address"
        },
        {
          "indexed": false,
          "internalType": "uint256",
          "name": "amount",
          "type": "uint256"
        }
      ],
      "name": "Withdrawn",
      "type": "event"
    },
    {
      "inputs": [],
      "name": "BURNER_ROLE",
      "outputs": [
        {
          "internalType": "bytes32",
          "name": "",
          "type": "bytes32"
        }
      ],
      "stateMutability": "view",
      "type": "function",
      "constant": true
    },
    {
      "inputs": [],
      "name": "DEFAULT_ADMIN_ROLE",
      "outputs": [
        {
          "internalType": "bytes32",
          "name": "",
          "type": "bytes32"
        }
      ],
      "stateMutability": "view",
      "type": "function",
      "constant": true
    },
    {
      "inputs": [],
      "name": "MINTER_ROLE",
      "outputs": [
        {
          "internalType": "bytes32",
          "name": "",
          "type": "bytes32"
        }
      ],
      "stateMutability": "view",
      "type": "function",
      "constant": true
    },
    {
      "inputs": [],
      "name": "busdxToken",
      "outputs": [
        {
          "internalType": "contract ERC20",
          "name": "",
          "type": "address"
        }
      ],
      "stateMutability": "view",
      "type": "function",
      "constant": true
    },
    {
      "inputs": [
        {
          "internalType": "bytes32",
          "name": "role",
          "type": "bytes32"
        }
      ],
      "name": "getRoleAdmin",
      "outputs": [
        {
          "internalType": "bytes32",
          "name": "",
          "type": "bytes32"
        }
      ],
      "stateMutability": "view",
      "type": "function",
      "constant": true
    },
    {
      "inputs": [],
      "name": "grantBalance",
      "outputs": [
        {
          "internalType": "uint256",
          "name": "",
          "type": "uint256"
        }
      ],
      "stateMutability": "view",
      "type": "function",
      "constant": true
    },
    {
      "inputs": [
        {
          "internalType": "bytes32",
          "name": "role",
          "type": "bytes32"
        },
        {
          "internalType": "address",
          "name": "account",
          "type": "address"
        }
      ],
      "name": "grantRole",
      "outputs": [],
      "stateMutability": "nonpayable",
      "type": "function"
    },
    {
      "inputs": [
        {
          "internalType": "bytes32",
          "name": "role",
          "type": "bytes32"
        },
        {
          "internalType": "address",
          "name": "account",
          "type": "address"
        }
      ],
      "name": "hasRole",
      "outputs": [
        {
          "internalType": "bool",
          "name": "",
          "type": "bool"
        }
      ],
      "stateMutability": "view",
      "type": "function",
      "constant": true
    },
    {
      "inputs": [
        {
          "internalType": "address",
          "name": "",
          "type": "address"
        }
      ],
      "name": "hasStaked",
      "outputs": [
        {
          "internalType": "bool",
          "name": "",
          "type": "bool"
        }
      ],
      "stateMutability": "view",
      "type": "function",
      "constant": true
    },
    {
      "inputs": [
        {
          "internalType": "address",
          "name": "",
          "type": "address"
        }
      ],
      "name": "hasUnstaked",
      "outputs": [
        {
          "internalType": "bool",
          "name": "",
          "type": "bool"
        }
      ],
      "stateMutability": "view",
      "type": "function",
      "constant": true
    },
    {
      "inputs": [
        {
          "internalType": "address",
          "name": "",
          "type": "address"
        }
      ],
      "name": "isStaking",
      "outputs": [
        {
          "internalType": "bool",
          "name": "",
          "type": "bool"
        }
      ],
      "stateMutability": "view",
      "type": "function",
      "constant": true
    },
    {
      "inputs": [],
      "name": "name",
      "outputs": [
        {
          "internalType": "string",
          "name": "",
          "type": "string"
        }
      ],
      "stateMutability": "view",
      "type": "function",
      "constant": true
    },
    {
      "inputs": [],
      "name": "owner",
      "outputs": [
        {
          "internalType": "address",
          "name": "",
          "type": "address"
        }
      ],
      "stateMutability": "view",
      "type": "function",
      "constant": true
    },
    {
      "inputs": [],
      "name": "paused",
      "outputs": [
        {
          "internalType": "bool",
          "name": "",
          "type": "bool"
        }
      ],
      "stateMutability": "view",
      "type": "function",
      "constant": true
    },
    {
      "inputs": [],
      "name": "renounceOwnership",
      "outputs": [],
      "stateMutability": "nonpayable",
      "type": "function"
    },
    {
      "inputs": [
        {
          "internalType": "bytes32",
          "name": "role",
          "type": "bytes32"
        },
        {
          "internalType": "address",
          "name": "account",
          "type": "address"
        }
      ],
      "name": "renounceRole",
      "outputs": [],
      "stateMutability": "nonpayable",
      "type": "function"
    },
    {
      "inputs": [
        {
          "internalType": "bytes32",
          "name": "role",
          "type": "bytes32"
        },
        {
          "internalType": "address",
          "name": "account",
          "type": "address"
        }
      ],
      "name": "revokeRole",
      "outputs": [],
      "stateMutability": "nonpayable",
      "type": "function"
    },
    {
      "inputs": [],
      "name": "rewardRate",
      "outputs": [
        {
          "internalType": "uint256",
          "name": "",
          "type": "uint256"
        }
      ],
      "stateMutability": "view",
      "type": "function",
      "constant": true
    },
    {
      "inputs": [
        {
          "internalType": "address",
          "name": "",
          "type": "address"
        }
      ],
      "name": "rewards",
      "outputs": [
        {
          "internalType": "uint256",
          "name": "",
          "type": "uint256"
        }
      ],
      "stateMutability": "view",
      "type": "function",
      "constant": true
    },
    {
      "inputs": [],
      "name": "rewardsDistribution",
      "outputs": [
        {
          "internalType": "address",
          "name": "",
          "type": "address"
        }
      ],
      "stateMutability": "view",
      "type": "function",
      "constant": true
    },
    {
      "inputs": [
        {
          "internalType": "address",
          "name": "",
          "type": "address"
        }
      ],
      "name": "stakedTimeStamp",
      "outputs": [
        {
          "internalType": "uint256",
          "name": "",
          "type": "uint256"
        }
      ],
      "stateMutability": "view",
      "type": "function",
      "constant": true
    },
    {
      "inputs": [
        {
          "internalType": "uint256",
          "name": "",
          "type": "uint256"
        }
      ],
      "name": "stakers",
      "outputs": [
        {
          "internalType": "address",
          "name": "",
          "type": "address"
        }
      ],
      "stateMutability": "view",
      "type": "function",
      "constant": true
    },
    {
      "inputs": [
        {
          "internalType": "address",
          "name": "",
          "type": "address"
        }
      ],
      "name": "stakingBalance",
      "outputs": [
        {
          "internalType": "uint256",
          "name": "",
          "type": "uint256"
        }
      ],
      "stateMutability": "view",
      "type": "function",
      "constant": true
    },
    {
      "inputs": [
        {
          "internalType": "bytes4",
          "name": "interfaceId",
          "type": "bytes4"
        }
      ],
      "name": "supportsInterface",
      "outputs": [
        {
          "internalType": "bool",
          "name": "",
          "type": "bool"
        }
      ],
      "stateMutability": "view",
      "type": "function",
      "constant": true
    },
    {
      "inputs": [
        {
          "internalType": "address",
          "name": "newOwner",
          "type": "address"
        }
      ],
      "name": "transferOwnership",
      "outputs": [],
      "stateMutability": "nonpayable",
      "type": "function"
    },
    {
      "inputs": [
        {
          "internalType": "address",
          "name": "",
          "type": "address"
        }
      ],
      "name": "unStakedUserDetails",
      "outputs": [
        {
          "internalType": "uint256",
          "name": "",
          "type": "uint256"
        }
      ],
      "stateMutability": "view",
      "type": "function",
      "constant": true
    },
    {
      "inputs": [
        {
          "internalType": "uint256",
          "name": "",
          "type": "uint256"
        }
      ],
      "name": "unStakers",
      "outputs": [
        {
          "internalType": "address",
          "name": "",
          "type": "address"
        }
      ],
      "stateMutability": "view",
      "type": "function",
      "constant": true
    },
    {
      "inputs": [
        {
          "internalType": "address",
          "name": "",
          "type": "address"
        }
      ],
      "name": "userRewardPerTokenPaid",
      "outputs": [
        {
          "internalType": "uint256",
          "name": "",
          "type": "uint256"
        }
      ],
      "stateMutability": "view",
      "type": "function",
      "constant": true
    },
    {
      "inputs": [],
      "name": "totalSupply",
      "outputs": [
        {
          "internalType": "uint256",
          "name": "",
          "type": "uint256"
        }
      ],
      "stateMutability": "view",
      "type": "function",
      "constant": true
    },
    {
      "inputs": [
        {
          "internalType": "address",
          "name": "account",
          "type": "address"
        }
      ],
      "name": "balanceOf",
      "outputs": [
        {
          "internalType": "uint256",
          "name": "",
          "type": "uint256"
        }
      ],
      "stateMutability": "view",
      "type": "function",
      "constant": true
    },
    {
      "inputs": [],
      "name": "numberOfStakers",
      "outputs": [
        {
          "internalType": "uint256",
          "name": "",
          "type": "uint256"
        }
      ],
      "stateMutability": "view",
      "type": "function",
      "constant": true
    },
    {
      "inputs": [
        {
          "internalType": "uint256",
          "name": "_amount",
          "type": "uint256"
        }
      ],
      "name": "addGrandAmount",
      "outputs": [],
      "stateMutability": "nonpayable",
      "type": "function"
    },
    {
      "inputs": [
        {
          "internalType": "address",
          "name": "account",
          "type": "address"
        }
      ],
      "name": "timeStampDiff",
      "outputs": [
        {
          "internalType": "uint256",
          "name": "",
          "type": "uint256"
        }
      ],
      "stateMutability": "view",
      "type": "function",
      "constant": true
    },
    {
      "inputs": [
        {
          "internalType": "address",
          "name": "account",
          "type": "address"
        }
      ],
      "name": "rewardTokenPerAnnum",
      "outputs": [
        {
          "internalType": "uint256",
          "name": "",
          "type": "uint256"
        }
      ],
      "stateMutability": "view",
      "type": "function",
      "constant": true
    },
    {
      "inputs": [
        {
          "internalType": "address",
          "name": "account",
          "type": "address"
        }
      ],
      "name": "earned",
      "outputs": [
        {
          "internalType": "uint256",
          "name": "",
          "type": "uint256"
        }
      ],
      "stateMutability": "view",
      "type": "function",
      "constant": true
    },
    {
      "inputs": [
        {
          "internalType": "uint256",
          "name": "amount",
          "type": "uint256"
        }
      ],
      "name": "stake",
      "outputs": [],
      "stateMutability": "nonpayable",
      "type": "function"
    },
    {
      "inputs": [
        {
          "internalType": "uint256",
          "name": "amount",
          "type": "uint256"
        }
      ],
      "name": "withdraw",
      "outputs": [],
      "stateMutability": "nonpayable",
      "type": "function"
    },
    {
      "inputs": [],
      "name": "getReward",
      "outputs": [],
      "stateMutability": "nonpayable",
      "type": "function"
    },
    {
      "inputs": [],
      "name": "exit",
      "outputs": [],
      "stateMutability": "nonpayable",
      "type": "function"
    },
    {
      "inputs": [],
      "name": "stakeRewardTokens",
      "outputs": [],
      "stateMutability": "nonpayable",
      "type": "function"
    },
    {
      "inputs": [
        {
          "internalType": "address",
          "name": "_rewardsDistribution",
          "type": "address"
        }
      ],
      "name": "setRewardsDistribution",
      "outputs": [],
      "stateMutability": "nonpayable",
      "type": "function"
    },
    {
      "inputs": [
        {
          "internalType": "uint256",
          "name": "_rewardRate",
          "type": "uint256"
        }
      ],
      "name": "setRewardRate",
      "outputs": [],
      "stateMutability": "nonpayable",
      "type": "function"
    },
    {
      "inputs": [],
      "name": "pause",
      "outputs": [],
      "stateMutability": "nonpayable",
      "type": "function"
    },
    {
      "inputs": [],
      "name": "unpause",
      "outputs": [],
      "stateMutability": "nonpayable",
      "type": "function"
    }
  ],
  "bytecode": "0x6080604052601e600e553480156200001657600080fd5b50604051620041f6380380620041f683398181016040528101906200003c9190620006d2565b6200005c620000506200019d60201b60201c565b620001a560201b60201c565b60016002819055506000600360006101000a81548160ff02191690831515021790555083600560006101000a81548173ffffffffffffffffffffffffffffffffffffffff021916908373ffffffffffffffffffffffffffffffffffffffff1602179055508260049080519060200190620000d8929190620003db565b5081600d60006101000a81548173ffffffffffffffffffffffffffffffffffffffff021916908373ffffffffffffffffffffffffffffffffffffffff1602179055506200012f6000801b826200026960201b60201c565b620001617f9f2df0fed2c77648de5860a4cc508cd0818c85b8b8a1ab4ceeef8d981c8956a6826200026960201b60201c565b620001937f3c11d16cbaffd01df69ce1c404f6340ee057498f5f00246190ea54220576a848826200026960201b60201c565b50505050620007c8565b600033905090565b60008060009054906101000a900473ffffffffffffffffffffffffffffffffffffffff169050816000806101000a81548173ffffffffffffffffffffffffffffffffffffffff021916908373ffffffffffffffffffffffffffffffffffffffff1602179055508173ffffffffffffffffffffffffffffffffffffffff168173ffffffffffffffffffffffffffffffffffffffff167f8be0079c531659141344cd1fd0a4f28419497f9722a3daafe3b4186f6b6457e060405160405180910390a35050565b6200027b82826200027f60201b60201c565b5050565b6200029182826200037060201b60201c565b6200036c57600180600084815260200190815260200160002060000160008373ffffffffffffffffffffffffffffffffffffffff1673ffffffffffffffffffffffffffffffffffffffff16815260200190815260200160002060006101000a81548160ff021916908315150217905550620003116200019d60201b60201c565b73ffffffffffffffffffffffffffffffffffffffff168173ffffffffffffffffffffffffffffffffffffffff16837f2f8788117e7eff1d82e926ec794901d17c78024a50270940304540a733656f0d60405160405180910390a45b5050565b60006001600084815260200190815260200160002060000160008373ffffffffffffffffffffffffffffffffffffffff1673ffffffffffffffffffffffffffffffffffffffff16815260200190815260200160002060009054906101000a900460ff16905092915050565b828054620003e99062000792565b90600052602060002090601f0160209004810192826200040d576000855562000459565b82601f106200042857805160ff191683800117855562000459565b8280016001018555821562000459579182015b82811115620004585782518255916020019190600101906200043b565b5b5090506200046891906200046c565b5090565b5b80821115620004875760008160009055506001016200046d565b5090565b6000604051905090565b600080fd5b600080fd5b600073ffffffffffffffffffffffffffffffffffffffff82169050919050565b6000620004cc826200049f565b9050919050565b6000620004e082620004bf565b9050919050565b620004f281620004d3565b8114620004fe57600080fd5b50565b6000815190506200051281620004e7565b92915050565b600080fd5b600080fd5b6000601f19601f8301169050919050565b7f4e487b7100000000000000000000000000000000000000000000000000000000600052604160045260246000fd5b6200056d8262000522565b810181811067ffffffffffffffff821117156200058f576200058e62000533565b5b80604052505050565b6000620005a46200048b565b9050620005b2828262000562565b919050565b600067ffffffffffffffff821115620005d557620005d462000533565b5b620005e08262000522565b9050602081019050919050565b60005b838110156200060d578082015181840152602081019050620005f0565b838111156200061d576000848401525b50505050565b60006200063a6200063484620005b7565b62000598565b9050828152602081018484840111156200065957620006586200051d565b5b62000666848285620005ed565b509392505050565b600082601f83011262000686576200068562000518565b5b81516200069884826020860162000623565b91505092915050565b620006ac81620004bf565b8114620006b857600080fd5b50565b600081519050620006cc81620006a1565b92915050565b60008060008060808587031215620006ef57620006ee62000495565b5b6000620006ff8782880162000501565b945050602085015167ffffffffffffffff8111156200072357620007226200049a565b5b62000731878288016200066e565b93505060406200074487828801620006bb565b92505060606200075787828801620006bb565b91505092959194509250565b7f4e487b7100000000000000000000000000000000000000000000000000000000600052602260045260246000fd5b60006002820490506001821680620007ab57607f821691505b60208210811415620007c257620007c162000763565b5b50919050565b613a1e80620007d86000396000f3fe608060405234801561001057600080fd5b50600436106102735760003560e01c80636f49712b11610151578063a694fc3a116100c3578063d547741f11610087578063d547741f14610776578063e0359d2a14610792578063e9fad8ee146107c2578063f2fde38b146107cc578063f895d1c2146107e8578063fd5e6dd11461081857610273565b8063a694fc3a146106be578063b252ccc1146106da578063c93c8f341461070a578063cf066d981461073a578063d53913931461075857610273565b806386b242751161011557806386b24275146105d65780638b876347146106065780638da5cb5b1461063657806391d14854146106545780639e447fc614610684578063a217fddf146106a057610273565b80636f49712b1461054457806370a0823114610574578063715018a6146105a45780637b0a47ee146105ae5780638456cb59146105cc57610273565b8063306ef31b116101ea5780633fc6df6e116101ae5780633fc6df6e1461046e57806342e4fc761461048c57806345bc78ab146104a85780635c975abb146104d85780635d0da4b5146104f65780635eabf5771461052657610273565b8063306ef31b146103f057806333b1b3bc1461042057806336568abe1461043e5780633d18b9121461045a5780633f4ba83a1461046457610273565b8063197621431161023c5780631976214314610344578063237ba55f14610360578063248a9ca31461036a578063282c51f31461039a5780632e1a7d4d146103b85780632f2ff15d146103d457610273565b80628cc2621461027857806301ffc9a7146102a857806306fdde03146102d85780630700037d146102f657806318160ddd14610326575b600080fd5b610292600480360381019061028d9190612ce8565b610848565b60405161029f9190612d2e565b60405180910390f35b6102c260048036038101906102bd9190612da1565b6108e2565b6040516102cf9190612de9565b60405180910390f35b6102e061095c565b6040516102ed9190612e9d565b60405180910390f35b610310600480360381019061030b9190612ce8565b6109ea565b60405161031d9190612d2e565b60405180910390f35b61032e610a02565b60405161033b9190612d2e565b60405180910390f35b61035e60048036038101906103599190612ce8565b610a0c565b005b610368610acc565b005b610384600480360381019061037f9190612ef5565b610f53565b6040516103919190612f31565b60405180910390f35b6103a2610f73565b6040516103af9190612f31565b60405180910390f35b6103d260048036038101906103cd9190612f78565b610f97565b005b6103ee60048036038101906103e99190612fa5565b611547565b005b61040a60048036038101906104059190612ce8565b611570565b6040516104179190612d2e565b60405180910390f35b6104286115d2565b6040516104359190613044565b60405180910390f35b61045860048036038101906104539190612fa5565b6115f8565b005b61046261167b565b005b61046c61191b565b005b6104766119a1565b604051610483919061306e565b60405180910390f35b6104a660048036038101906104a19190612f78565b6119c7565b005b6104c260048036038101906104bd9190612ce8565b611afd565b6040516104cf9190612d2e565b60405180910390f35b6104e0611b15565b6040516104ed9190612de9565b60405180910390f35b610510600480360381019061050b9190612ce8565b611b2c565b60405161051d9190612d2e565b60405180910390f35b61052e611b80565b60405161053b9190612d2e565b60405180910390f35b61055e60048036038101906105599190612ce8565b611b8d565b60405161056b9190612de9565b60405180910390f35b61058e60048036038101906105899190612ce8565b611bad565b60405161059b9190612d2e565b60405180910390f35b6105ac611bf6565b005b6105b6611c7e565b6040516105c39190612d2e565b60405180910390f35b6105d4611c84565b005b6105f060048036038101906105eb9190612ce8565b611d0a565b6040516105fd9190612d2e565b60405180910390f35b610620600480360381019061061b9190612ce8565b611d22565b60405161062d9190612d2e565b60405180910390f35b61063e611d3a565b60405161064b919061306e565b60405180910390f35b61066e60048036038101906106699190612fa5565b611d63565b60405161067b9190612de9565b60405180910390f35b61069e60048036038101906106999190612f78565b611dce565b005b6106a8611e54565b6040516106b59190612f31565b60405180910390f35b6106d860048036038101906106d39190612f78565b611e5b565b005b6106f460048036038101906106ef9190612ce8565b6122fc565b6040516107019190612d2e565b60405180910390f35b610724600480360381019061071f9190612ce8565b612314565b6040516107319190612de9565b60405180910390f35b610742612334565b60405161074f9190612d2e565b60405180910390f35b61076061233a565b60405161076d9190612f31565b60405180910390f35b610790600480360381019061078b9190612fa5565b61235e565b005b6107ac60048036038101906107a79190612ce8565b612387565b6040516107b99190612de9565b60405180910390f35b6107ca6123a7565b005b6107e660048036038101906107e19190612ce8565b6123f9565b005b61080260048036038101906107fd9190612f78565b6124f1565b60405161080f919061306e565b60405180910390f35b610832600480360381019061082d9190612f78565b612530565b60405161083f919061306e565b60405180910390f35b600080603c61085684611b2c565b61086091906130e7565b905060006208052061087185611570565b61087b91906130e7565b90506000828261088b9190613118565b9050601060008673ffffffffffffffffffffffffffffffffffffffff1673ffffffffffffffffffffffffffffffffffffffff16815260200190815260200160002054816108d89190613172565b9350505050919050565b60007f7965db0b000000000000000000000000000000000000000000000000000000007bffffffffffffffffffffffffffffffffffffffffffffffffffffffff1916827bffffffffffffffffffffffffffffffffffffffffffffffffffffffff1916148061095557506109548261256f565b5b9050919050565b60048054610969906131f7565b80601f0160208091040260200160405190810160405280929190818152602001828054610995906131f7565b80156109e25780601f106109b7576101008083540402835291602001916109e2565b820191906000526020600020905b8154815290600101906020018083116109c557829003601f168201915b505050505081565b60106020528060005260406000206000915090505481565b6000601154905090565b610a146125d9565b73ffffffffffffffffffffffffffffffffffffffff16610a32611d3a565b73ffffffffffffffffffffffffffffffffffffffff1614610a88576040517f08c379a0000000000000000000000000000000000000000000000000000000008152600401610a7f90613275565b60405180910390fd5b80600d60006101000a81548173ffffffffffffffffffffffffffffffffffffffff021916908373ffffffffffffffffffffffffffffffffffffffff16021790555050565b600280541415610b11576040517f08c379a0000000000000000000000000000000000000000000000000000000008152600401610b08906132e1565b60405180910390fd5b60028081905550610b20611b15565b15610b60576040517f08c379a0000000000000000000000000000000000000000000000000000000008152600401610b579061334d565b60405180910390fd5b33600073ffffffffffffffffffffffffffffffffffffffff168173ffffffffffffffffffffffffffffffffffffffff1614610be257610b9e81610848565b601060008373ffffffffffffffffffffffffffffffffffffffff1673ffffffffffffffffffffffffffffffffffffffff168152602001908152602001600020819055505b6000601060003373ffffffffffffffffffffffffffffffffffffffff1673ffffffffffffffffffffffffffffffffffffffff16815260200190815260200160002054905060008111610c69576040517f08c379a0000000000000000000000000000000000000000000000000000000008152600401610c60906133df565b60405180910390fd5b6000601060003373ffffffffffffffffffffffffffffffffffffffff1673ffffffffffffffffffffffffffffffffffffffff1681526020019081526020016000208190555080601154610cbc9190613172565b60118190555080601260003373ffffffffffffffffffffffffffffffffffffffff1673ffffffffffffffffffffffffffffffffffffffff16815260200190815260200160002054610d0d9190613172565b601260003373ffffffffffffffffffffffffffffffffffffffff1673ffffffffffffffffffffffffffffffffffffffff1681526020019081526020016000208190555042601360003373ffffffffffffffffffffffffffffffffffffffff1673ffffffffffffffffffffffffffffffffffffffff16815260200190815260200160002081905550600860003373ffffffffffffffffffffffffffffffffffffffff1673ffffffffffffffffffffffffffffffffffffffff16815260200190815260200160002060009054906101000a900460ff16610e49576006339080600181540180825580915050600190039060005260206000200160009091909190916101000a81548173ffffffffffffffffffffffffffffffffffffffff021916908373ffffffffffffffffffffffffffffffffffffffff1602179055505b6001600960003373ffffffffffffffffffffffffffffffffffffffff1673ffffffffffffffffffffffffffffffffffffffff16815260200190815260200160002060006101000a81548160ff0219169083151502179055506001600860003373ffffffffffffffffffffffffffffffffffffffff1673ffffffffffffffffffffffffffffffffffffffff16815260200190815260200160002060006101000a81548160ff0219169083151502179055503373ffffffffffffffffffffffffffffffffffffffff167f9e71bc8eea02a63969f509818f2dafb9254532904319f9dbda79b67bd34a5f3d82604051610f3f9190612d2e565b60405180910390a250506001600281905550565b600060016000838152602001908152602001600020600101549050919050565b7f3c11d16cbaffd01df69ce1c404f6340ee057498f5f00246190ea54220576a84881565b600280541415610fdc576040517f08c379a0000000000000000000000000000000000000000000000000000000008152600401610fd3906132e1565b60405180910390fd5b6002808190555033600073ffffffffffffffffffffffffffffffffffffffff168173ffffffffffffffffffffffffffffffffffffffff16146110655761102181610848565b601060008373ffffffffffffffffffffffffffffffffffffffff1673ffffffffffffffffffffffffffffffffffffffff168152602001908152602001600020819055505b600082116110a8576040517f08c379a000000000000000000000000000000000000000000000000000000000815260040161109f9061344b565b60405180910390fd5b6000601260003373ffffffffffffffffffffffffffffffffffffffff1673ffffffffffffffffffffffffffffffffffffffff168152602001908152602001600020541161112a576040517f08c379a0000000000000000000000000000000000000000000000000000000008152600401611121906134dd565b60405180910390fd5b8160115461113891906134fd565b60118190555081601260003373ffffffffffffffffffffffffffffffffffffffff1673ffffffffffffffffffffffffffffffffffffffff1681526020019081526020016000205461118991906134fd565b601260003373ffffffffffffffffffffffffffffffffffffffff1673ffffffffffffffffffffffffffffffffffffffff16815260200190815260200160002081905550600560009054906101000a900473ffffffffffffffffffffffffffffffffffffffff1673ffffffffffffffffffffffffffffffffffffffff1663a9059cbb33846040518363ffffffff1660e01b8152600401611229929190613531565b6020604051808303816000875af1158015611248573d6000803e3d6000fd5b505050506040513d601f19601f8201168201806040525081019061126c9190613586565b5042601360003373ffffffffffffffffffffffffffffffffffffffff1673ffffffffffffffffffffffffffffffffffffffff1681526020019081526020016000208190555081600a60003373ffffffffffffffffffffffffffffffffffffffff1673ffffffffffffffffffffffffffffffffffffffff168152602001908152602001600020546112fc9190613172565b600a60003373ffffffffffffffffffffffffffffffffffffffff1673ffffffffffffffffffffffffffffffffffffffff16815260200190815260200160002081905550600c60003373ffffffffffffffffffffffffffffffffffffffff1673ffffffffffffffffffffffffffffffffffffffff16815260200190815260200160002060009054906101000a900460ff166113f457600b339080600181540180825580915050600190039060005260206000200160009091909190916101000a81548173ffffffffffffffffffffffffffffffffffffffff021916908373ffffffffffffffffffffffffffffffffffffffff1602179055505b6001600c60003373ffffffffffffffffffffffffffffffffffffffff1673ffffffffffffffffffffffffffffffffffffffff16815260200190815260200160002060006101000a81548160ff0219169083151502179055506000601260003373ffffffffffffffffffffffffffffffffffffffff1673ffffffffffffffffffffffffffffffffffffffff1681526020019081526020016000205414156114ed576000600960003373ffffffffffffffffffffffffffffffffffffffff1673ffffffffffffffffffffffffffffffffffffffff16815260200190815260200160002060006101000a81548160ff0219169083151502179055505b3373ffffffffffffffffffffffffffffffffffffffff167f7084f5476618d8e60b11ef0d7d3f06914655adb8793e28ff7f018d4c76d505d5836040516115339190612d2e565b60405180910390a250600160028190555050565b61155082610f53565b6115618161155c6125d9565b6125e1565b61156b838361267e565b505050565b60006064600e54601260008573ffffffffffffffffffffffffffffffffffffffff1673ffffffffffffffffffffffffffffffffffffffff168152602001908152602001600020546115c19190613118565b6115cb91906130e7565b9050919050565b600560009054906101000a900473ffffffffffffffffffffffffffffffffffffffff1681565b6116006125d9565b73ffffffffffffffffffffffffffffffffffffffff168173ffffffffffffffffffffffffffffffffffffffff161461166d576040517f08c379a000000000000000000000000000000000000000000000000000000000815260040161166490613625565b60405180910390fd5b611677828261275e565b5050565b6002805414156116c0576040517f08c379a00000000000000000000000000000000000000000000000000000000081526004016116b7906132e1565b60405180910390fd5b6002808190555033600073ffffffffffffffffffffffffffffffffffffffff168173ffffffffffffffffffffffffffffffffffffffff16146117495761170581610848565b601060008373ffffffffffffffffffffffffffffffffffffffff1673ffffffffffffffffffffffffffffffffffffffff168152602001908152602001600020819055505b6000601060003373ffffffffffffffffffffffffffffffffffffffff1673ffffffffffffffffffffffffffffffffffffffff168152602001908152602001600020549050600081111561190f576000601060003373ffffffffffffffffffffffffffffffffffffffff1673ffffffffffffffffffffffffffffffffffffffff16815260200190815260200160002081905550600560009054906101000a900473ffffffffffffffffffffffffffffffffffffffff1673ffffffffffffffffffffffffffffffffffffffff1663a9059cbb33836040518363ffffffff1660e01b8152600401611838929190613531565b6020604051808303816000875af1158015611857573d6000803e3d6000fd5b505050506040513d601f19601f8201168201806040525081019061187b9190613586565b5042601360003373ffffffffffffffffffffffffffffffffffffffff1673ffffffffffffffffffffffffffffffffffffffff168152602001908152602001600020819055503373ffffffffffffffffffffffffffffffffffffffff167fe2403640ba68fed3a2f88b7557551d1993f84b99bb10ff833f0cf8db0c5e0486826040516119069190612d2e565b60405180910390a25b50506001600281905550565b6119236125d9565b73ffffffffffffffffffffffffffffffffffffffff16611941611d3a565b73ffffffffffffffffffffffffffffffffffffffff1614611997576040517f08c379a000000000000000000000000000000000000000000000000000000000815260040161198e90613275565b60405180910390fd5b61199f612840565b565b600d60009054906101000a900473ffffffffffffffffffffffffffffffffffffffff1681565b6119cf6125d9565b73ffffffffffffffffffffffffffffffffffffffff166119ed611d3a565b73ffffffffffffffffffffffffffffffffffffffff1614611a43576040517f08c379a0000000000000000000000000000000000000000000000000000000008152600401611a3a90613275565b60405180910390fd5b600560009054906101000a900473ffffffffffffffffffffffffffffffffffffffff1673ffffffffffffffffffffffffffffffffffffffff166323b872dd3330846040518463ffffffff1660e01b8152600401611aa293929190613645565b6020604051808303816000875af1158015611ac1573d6000803e3d6000fd5b505050506040513d601f19601f82011682018060405250810190611ae59190613586565b5060145481611af49190613172565b60148190555050565b60076020528060005260406000206000915090505481565b6000600360009054906101000a900460ff16905090565b6000601360008373ffffffffffffffffffffffffffffffffffffffff1673ffffffffffffffffffffffffffffffffffffffff1681526020019081526020016000205442611b7991906134fd565b9050919050565b6000600680549050905090565b60096020528060005260406000206000915054906101000a900460ff1681565b6000601260008373ffffffffffffffffffffffffffffffffffffffff1673ffffffffffffffffffffffffffffffffffffffff168152602001908152602001600020549050919050565b611bfe6125d9565b73ffffffffffffffffffffffffffffffffffffffff16611c1c611d3a565b73ffffffffffffffffffffffffffffffffffffffff1614611c72576040517f08c379a0000000000000000000000000000000000000000000000000000000008152600401611c6990613275565b60405180910390fd5b611c7c60006128e2565b565b600e5481565b611c8c6125d9565b73ffffffffffffffffffffffffffffffffffffffff16611caa611d3a565b73ffffffffffffffffffffffffffffffffffffffff1614611d00576040517f08c379a0000000000000000000000000000000000000000000000000000000008152600401611cf790613275565b60405180910390fd5b611d086129a6565b565b60136020528060005260406000206000915090505481565b600f6020528060005260406000206000915090505481565b60008060009054906101000a900473ffffffffffffffffffffffffffffffffffffffff16905090565b60006001600084815260200190815260200160002060000160008373ffffffffffffffffffffffffffffffffffffffff1673ffffffffffffffffffffffffffffffffffffffff16815260200190815260200160002060009054906101000a900460ff16905092915050565b611dd66125d9565b73ffffffffffffffffffffffffffffffffffffffff16611df4611d3a565b73ffffffffffffffffffffffffffffffffffffffff1614611e4a576040517f08c379a0000000000000000000000000000000000000000000000000000000008152600401611e4190613275565b60405180910390fd5b80600e8190555050565b6000801b81565b600280541415611ea0576040517f08c379a0000000000000000000000000000000000000000000000000000000008152600401611e97906132e1565b60405180910390fd5b60028081905550611eaf611b15565b15611eef576040517f08c379a0000000000000000000000000000000000000000000000000000000008152600401611ee69061334d565b60405180910390fd5b33600073ffffffffffffffffffffffffffffffffffffffff168173ffffffffffffffffffffffffffffffffffffffff1614611f7157611f2d81610848565b601060008373ffffffffffffffffffffffffffffffffffffffff1673ffffffffffffffffffffffffffffffffffffffff168152602001908152602001600020819055505b60008211611fb4576040517f08c379a0000000000000000000000000000000000000000000000000000000008152600401611fab906136c8565b60405180910390fd5b81601154611fc29190613172565b60118190555081601260003373ffffffffffffffffffffffffffffffffffffffff1673ffffffffffffffffffffffffffffffffffffffff168152602001908152602001600020546120139190613172565b601260003373ffffffffffffffffffffffffffffffffffffffff1673ffffffffffffffffffffffffffffffffffffffff16815260200190815260200160002081905550600560009054906101000a900473ffffffffffffffffffffffffffffffffffffffff1673ffffffffffffffffffffffffffffffffffffffff166323b872dd3330856040518463ffffffff1660e01b81526004016120b593929190613645565b6020604051808303816000875af11580156120d4573d6000803e3d6000fd5b505050506040513d601f19601f820116820180604052508101906120f89190613586565b5042601360003373ffffffffffffffffffffffffffffffffffffffff1673ffffffffffffffffffffffffffffffffffffffff16815260200190815260200160002081905550600860003373ffffffffffffffffffffffffffffffffffffffff1673ffffffffffffffffffffffffffffffffffffffff16815260200190815260200160002060009054906101000a900460ff166121f2576006339080600181540180825580915050600190039060005260206000200160009091909190916101000a81548173ffffffffffffffffffffffffffffffffffffffff021916908373ffffffffffffffffffffffffffffffffffffffff1602179055505b6001600960003373ffffffffffffffffffffffffffffffffffffffff1673ffffffffffffffffffffffffffffffffffffffff16815260200190815260200160002060006101000a81548160ff0219169083151502179055506001600860003373ffffffffffffffffffffffffffffffffffffffff1673ffffffffffffffffffffffffffffffffffffffff16815260200190815260200160002060006101000a81548160ff0219169083151502179055503373ffffffffffffffffffffffffffffffffffffffff167f9e71bc8eea02a63969f509818f2dafb9254532904319f9dbda79b67bd34a5f3d836040516122e89190612d2e565b60405180910390a250600160028190555050565b600a6020528060005260406000206000915090505481565b60086020528060005260406000206000915054906101000a900460ff1681565b60145481565b7f9f2df0fed2c77648de5860a4cc508cd0818c85b8b8a1ab4ceeef8d981c8956a681565b61236782610f53565b612378816123736125d9565b6125e1565b612382838361275e565b505050565b600c6020528060005260406000206000915054906101000a900460ff1681565b6123ef601260003373ffffffffffffffffffffffffffffffffffffffff1673ffffffffffffffffffffffffffffffffffffffff16815260200190815260200160002054610f97565b6123f761167b565b565b6124016125d9565b73ffffffffffffffffffffffffffffffffffffffff1661241f611d3a565b73ffffffffffffffffffffffffffffffffffffffff1614612475576040517f08c379a000000000000000000000000000000000000000000000000000000000815260040161246c90613275565b60405180910390fd5b600073ffffffffffffffffffffffffffffffffffffffff168173ffffffffffffffffffffffffffffffffffffffff1614156124e5576040517f08c379a00000000000000000000000000000000000000000000000000000000081526004016124dc9061375a565b60405180910390fd5b6124ee816128e2565b50565b600b818154811061250157600080fd5b906000526020600020016000915054906101000a900473ffffffffffffffffffffffffffffffffffffffff1681565b6006818154811061254057600080fd5b906000526020600020016000915054906101000a900473ffffffffffffffffffffffffffffffffffffffff1681565b60007f01ffc9a7000000000000000000000000000000000000000000000000000000007bffffffffffffffffffffffffffffffffffffffffffffffffffffffff1916827bffffffffffffffffffffffffffffffffffffffffffffffffffffffff1916149050919050565b600033905090565b6125eb8282611d63565b61267a576126108173ffffffffffffffffffffffffffffffffffffffff166014612a49565b61261e8360001c6020612a49565b60405160200161262f92919061384e565b6040516020818303038152906040526040517f08c379a00000000000000000000000000000000000000000000000000000000081526004016126719190612e9d565b60405180910390fd5b5050565b6126888282611d63565b61275a57600180600084815260200190815260200160002060000160008373ffffffffffffffffffffffffffffffffffffffff1673ffffffffffffffffffffffffffffffffffffffff16815260200190815260200160002060006101000a81548160ff0219169083151502179055506126ff6125d9565b73ffffffffffffffffffffffffffffffffffffffff168173ffffffffffffffffffffffffffffffffffffffff16837f2f8788117e7eff1d82e926ec794901d17c78024a50270940304540a733656f0d60405160405180910390a45b5050565b6127688282611d63565b1561283c5760006001600084815260200190815260200160002060000160008373ffffffffffffffffffffffffffffffffffffffff1673ffffffffffffffffffffffffffffffffffffffff16815260200190815260200160002060006101000a81548160ff0219169083151502179055506127e16125d9565b73ffffffffffffffffffffffffffffffffffffffff168173ffffffffffffffffffffffffffffffffffffffff16837ff6391f5c32d9c69d2a47ea670b442974b53935d1edc7fd64eb21e047a839171b60405160405180910390a45b5050565b612848611b15565b612887576040517f08c379a000000000000000000000000000000000000000000000000000000000815260040161287e906138d4565b60405180910390fd5b6000600360006101000a81548160ff0219169083151502179055507f5db9ee0a495bf2e6ff9c91a7834c1ba4fdd244a5e8aa4e537bd38aeae4b073aa6128cb6125d9565b6040516128d8919061306e565b60405180910390a1565b60008060009054906101000a900473ffffffffffffffffffffffffffffffffffffffff169050816000806101000a81548173ffffffffffffffffffffffffffffffffffffffff021916908373ffffffffffffffffffffffffffffffffffffffff1602179055508173ffffffffffffffffffffffffffffffffffffffff168173ffffffffffffffffffffffffffffffffffffffff167f8be0079c531659141344cd1fd0a4f28419497f9722a3daafe3b4186f6b6457e060405160405180910390a35050565b6129ae611b15565b156129ee576040517f08c379a00000000000000000000000000000000000000000000000000000000081526004016129e59061334d565b60405180910390fd5b6001600360006101000a81548160ff0219169083151502179055507f62e78cea01bee320cd4e420270b5ea74000d11b0c9f74754ebdbfc544b05a258612a326125d9565b604051612a3f919061306e565b60405180910390a1565b606060006002836002612a5c9190613118565b612a669190613172565b67ffffffffffffffff811115612a7f57612a7e6138f4565b5b6040519080825280601f01601f191660200182016040528015612ab15781602001600182028036833780820191505090505b5090507f300000000000000000000000000000000000000000000000000000000000000081600081518110612ae957612ae8613923565b5b60200101907effffffffffffffffffffffffffffffffffffffffffffffffffffffffffffff1916908160001a9053507f780000000000000000000000000000000000000000000000000000000000000081600181518110612b4d57612b4c613923565b5b60200101907effffffffffffffffffffffffffffffffffffffffffffffffffffffffffffff1916908160001a90535060006001846002612b8d9190613118565b612b979190613172565b90505b6001811115612c37577f3031323334353637383961626364656600000000000000000000000000000000600f861660108110612bd957612bd8613923565b5b1a60f81b828281518110612bf057612bef613923565b5b60200101907effffffffffffffffffffffffffffffffffffffffffffffffffffffffffffff1916908160001a905350600485901c945080612c3090613952565b9050612b9a565b5060008414612c7b576040517f08c379a0000000000000000000000000000000000000000000000000000000008152600401612c72906139c8565b60405180910390fd5b8091505092915050565b600080fd5b600073ffffffffffffffffffffffffffffffffffffffff82169050919050565b6000612cb582612c8a565b9050919050565b612cc581612caa565b8114612cd057600080fd5b50565b600081359050612ce281612cbc565b92915050565b600060208284031215612cfe57612cfd612c85565b5b6000612d0c84828501612cd3565b91505092915050565b6000819050919050565b612d2881612d15565b82525050565b6000602082019050612d436000830184612d1f565b92915050565b60007fffffffff0000000000000000000000000000000000000000000000000000000082169050919050565b612d7e81612d49565b8114612d8957600080fd5b50565b600081359050612d9b81612d75565b92915050565b600060208284031215612db757612db6612c85565b5b6000612dc584828501612d8c565b91505092915050565b60008115159050919050565b612de381612dce565b82525050565b6000602082019050612dfe6000830184612dda565b92915050565b600081519050919050565b600082825260208201905092915050565b60005b83811015612e3e578082015181840152602081019050612e23565b83811115612e4d576000848401525b50505050565b6000601f19601f8301169050919050565b6000612e6f82612e04565b612e798185612e0f565b9350612e89818560208601612e20565b612e9281612e53565b840191505092915050565b60006020820190508181036000830152612eb78184612e64565b905092915050565b6000819050919050565b612ed281612ebf565b8114612edd57600080fd5b50565b600081359050612eef81612ec9565b92915050565b600060208284031215612f0b57612f0a612c85565b5b6000612f1984828501612ee0565b91505092915050565b612f2b81612ebf565b82525050565b6000602082019050612f466000830184612f22565b92915050565b612f5581612d15565b8114612f6057600080fd5b50565b600081359050612f7281612f4c565b92915050565b600060208284031215612f8e57612f8d612c85565b5b6000612f9c84828501612f63565b91505092915050565b60008060408385031215612fbc57612fbb612c85565b5b6000612fca85828601612ee0565b9250506020612fdb85828601612cd3565b9150509250929050565b6000819050919050565b600061300a61300561300084612c8a565b612fe5565b612c8a565b9050919050565b600061301c82612fef565b9050919050565b600061302e82613011565b9050919050565b61303e81613023565b82525050565b60006020820190506130596000830184613035565b92915050565b61306881612caa565b82525050565b6000602082019050613083600083018461305f565b92915050565b7f4e487b7100000000000000000000000000000000000000000000000000000000600052601260045260246000fd5b7f4e487b7100000000000000000000000000000000000000000000000000000000600052601160045260246000fd5b60006130f282612d15565b91506130fd83612d15565b92508261310d5761310c613089565b5b828204905092915050565b600061312382612d15565b915061312e83612d15565b9250817fffffffffffffffffffffffffffffffffffffffffffffffffffffffffffffffff0483118215151615613167576131666130b8565b5b828202905092915050565b600061317d82612d15565b915061318883612d15565b9250827fffffffffffffffffffffffffffffffffffffffffffffffffffffffffffffffff038211156131bd576131bc6130b8565b5b828201905092915050565b7f4e487b7100000000000000000000000000000000000000000000000000000000600052602260045260246000fd5b6000600282049050600182168061320f57607f821691505b60208210811415613223576132226131c8565b5b50919050565b7f4f776e61626c653a2063616c6c6572206973206e6f7420746865206f776e6572600082015250565b600061325f602083612e0f565b915061326a82613229565b602082019050919050565b6000602082019050818103600083015261328e81613252565b9050919050565b7f5265656e7472616e637947756172643a207265656e7472616e742063616c6c00600082015250565b60006132cb601f83612e0f565b91506132d682613295565b602082019050919050565b600060208201905081810360008301526132fa816132be565b9050919050565b7f5061757361626c653a2070617573656400000000000000000000000000000000600082015250565b6000613337601083612e0f565b915061334282613301565b602082019050919050565b600060208201905081810360008301526133668161332a565b9050919050565b7f52657761726420616d6f756e742073686f756c6420626520677265617465722060008201527f7468616e20300000000000000000000000000000000000000000000000000000602082015250565b60006133c9602683612e0f565b91506133d48261336d565b604082019050919050565b600060208201905081810360008301526133f8816133bc565b9050919050565b7f43616e6e6f742077697468647261772030000000000000000000000000000000600082015250565b6000613435601183612e0f565b9150613440826133ff565b602082019050919050565b6000602082019050818103600083015261346481613428565b9050919050565b7f4f6e6c79207374616b656420757365722063616e20626520556e7374616b656460008201527f2e00000000000000000000000000000000000000000000000000000000000000602082015250565b60006134c7602183612e0f565b91506134d28261346b565b604082019050919050565b600060208201905081810360008301526134f6816134ba565b9050919050565b600061350882612d15565b915061351383612d15565b925082821015613526576135256130b8565b5b828203905092915050565b6000604082019050613546600083018561305f565b6135536020830184612d1f565b9392505050565b61356381612dce565b811461356e57600080fd5b50565b6000815190506135808161355a565b92915050565b60006020828403121561359c5761359b612c85565b5b60006135aa84828501613571565b91505092915050565b7f416363657373436f6e74726f6c3a2063616e206f6e6c792072656e6f756e636560008201527f20726f6c657320666f722073656c660000000000000000000000000000000000602082015250565b600061360f602f83612e0f565b915061361a826135b3565b604082019050919050565b6000602082019050818103600083015261363e81613602565b9050919050565b600060608201905061365a600083018661305f565b613667602083018561305f565b6136746040830184612d1f565b949350505050565b7f43616e6e6f74207374616b652030000000000000000000000000000000000000600082015250565b60006136b2600e83612e0f565b91506136bd8261367c565b602082019050919050565b600060208201905081810360008301526136e1816136a5565b9050919050565b7f4f776e61626c653a206e6577206f776e657220697320746865207a65726f206160008201527f6464726573730000000000000000000000000000000000000000000000000000602082015250565b6000613744602683612e0f565b915061374f826136e8565b604082019050919050565b6000602082019050818103600083015261377381613737565b9050919050565b600081905092915050565b7f416363657373436f6e74726f6c3a206163636f756e7420000000000000000000600082015250565b60006137bb60178361377a565b91506137c682613785565b601782019050919050565b60006137dc82612e04565b6137e6818561377a565b93506137f6818560208601612e20565b80840191505092915050565b7f206973206d697373696e6720726f6c6520000000000000000000000000000000600082015250565b600061383860118361377a565b915061384382613802565b601182019050919050565b6000613859826137ae565b915061386582856137d1565b91506138708261382b565b915061387c82846137d1565b91508190509392505050565b7f5061757361626c653a206e6f7420706175736564000000000000000000000000600082015250565b60006138be601483612e0f565b91506138c982613888565b602082019050919050565b600060208201905081810360008301526138ed816138b1565b9050919050565b7f4e487b7100000000000000000000000000000000000000000000000000000000600052604160045260246000fd5b7f4e487b7100000000000000000000000000000000000000000000000000000000600052603260045260246000fd5b600061395d82612d15565b91506000821415613971576139706130b8565b5b600182039050919050565b7f537472696e67733a20686578206c656e67746820696e73756666696369656e74600082015250565b60006139b2602083612e0f565b91506139bd8261397c565b602082019050919050565b600060208201905081810360008301526139e1816139a5565b905091905056fea2646970667358221220a6903164bed00f519b5ba810f466c92208d9b889b875916f2e61e982d3bd7f5164736f6c634300080b0033",
  "immutableReferences": {},
  "source": "pragma solidity ^0.8.0;\n\nimport \"@openzeppelin/contracts/token/ERC20/ERC20.sol\";\n\nimport \"@openzeppelin/contracts/utils/math/SafeMath.sol\";\n\nimport \"@openzeppelin/contracts/access/Ownable.sol\";\n\nimport \"@openzeppelin/contracts/access/AccessControl.sol\";\n\nimport \"@openzeppelin/contracts/security/ReentrancyGuard.sol\";\n\nimport \"@openzeppelin/contracts/security/Pausable.sol\";\n\ncontract RewardStaking is Ownable, AccessControl, ReentrancyGuard, Pausable {\n    string public name;\n    ERC20 public busdxToken;\n    bytes32 public constant MINTER_ROLE = keccak256(\"MINTER_ROLE\");\n    bytes32 public constant BURNER_ROLE = keccak256(\"BURNER_ROLE\");\n\n    address[] public stakers;\n    mapping(address => uint256) public stakingBalance;\n    mapping(address => bool) public hasStaked;\n    mapping(address => bool) public isStaking;\n\n    // This unstake is variables used for minting the unstaked tokens.\n    mapping(address => uint256) public unStakedUserDetails;\n    address[] public unStakers;\n    mapping(address => bool) public hasUnstaked;\n\n    // Reward Distribution\n    address public rewardsDistribution;\n\n    uint256 public rewardRate = 30;\n\n    mapping(address => uint256) public userRewardPerTokenPaid;\n    mapping(address => uint256) public rewards;\n\n    uint256 private _totalSupply;\n    mapping(address => uint256) private _balances;\n\n    // save TimeStamp\n    mapping(address => uint256) public stakedTimeStamp;\n\n    uint256 public grantBalance;\n\n    // using SafeMath for uint256;\n    /* ========== EVENTS ========== */\n\n    event RewardAdded(uint256 reward);\n    event Staked(address indexed user, uint256 amount);\n    event Withdrawn(address indexed user, uint256 amount);\n    event RewardPaid(address indexed user, uint256 reward);\n    event RewardsDurationUpdated(uint256 newDuration);\n    event Recovered(address token, uint256 amount);\n\n    constructor(\n        ERC20 _busdxToken,\n        string memory _name,\n        address _rewardsDistribution,\n        address _ownerAddress\n    ) {\n        busdxToken = _busdxToken;\n        name = _name;\n        rewardsDistribution = _rewardsDistribution;\n        _setupRole(DEFAULT_ADMIN_ROLE, _ownerAddress);\n        _setupRole(MINTER_ROLE, _ownerAddress);\n        _setupRole(BURNER_ROLE, _ownerAddress);\n    }\n\n    function totalSupply() external view returns (uint256) {\n        return _totalSupply;\n    }\n\n    function balanceOf(address account) external view returns (uint256) {\n        return _balances[account];\n    }\n\n    function numberOfStakers() public view returns (uint256) {\n        return stakers.length;\n    }\n\n    function addGrandAmount(uint256 _amount) external onlyOwner {\n        busdxToken.transferFrom(msg.sender, address(this), _amount);\n        grantBalance = _amount + grantBalance;\n    }\n\n    function timeStampDiff(address account) public view returns (uint256) {\n        return block.timestamp - stakedTimeStamp[account];\n    }\n\n    function rewardTokenPerAnnum(address account)\n        public\n        view\n        returns (uint256)\n    {\n        return (_balances[account] * rewardRate) / 100;\n    }\n\n    function earned(address account) public view returns (uint256) {\n        uint256 tempTimeStamp = timeStampDiff(account) / 60;\n\n        uint256 rewardPerMin = rewardTokenPerAnnum(account) / 525600;\n\n        uint256 rewardAmount = rewardPerMin * tempTimeStamp;\n\n        return rewardAmount + rewards[account];\n    }\n\n    /* ========== MUTATIVE FUNCTIONS ========== */\n\n    function stake(uint256 amount)\n        external\n        nonReentrant\n        whenNotPaused\n        updateReward(msg.sender)\n    {\n        require(amount > 0, \"Cannot stake 0\");\n        _totalSupply = _totalSupply + amount;\n        _balances[msg.sender] = _balances[msg.sender] + amount;\n        busdxToken.transferFrom(msg.sender, address(this), amount);\n        // Updating current timestamp.\n        stakedTimeStamp[msg.sender] = block.timestamp;\n        // Add user to stakers array *only* if they haven't staked already\n        if (!hasStaked[msg.sender]) {\n            stakers.push(msg.sender);\n        }\n\n        // Update staking status\n        isStaking[msg.sender] = true;\n        hasStaked[msg.sender] = true;\n        emit Staked(msg.sender, amount);\n    }\n\n    function withdraw(uint256 amount)\n        public\n        nonReentrant\n        updateReward(msg.sender)\n    {\n        require(amount > 0, \"Cannot withdraw 0\");\n        require(_balances[msg.sender] > 0, \"Only staked user can be Unstaked.\");\n        _totalSupply = _totalSupply - amount;\n        _balances[msg.sender] = _balances[msg.sender] - amount;\n        busdxToken.transfer(msg.sender, amount);\n        // Updating current timestamp.\n        stakedTimeStamp[msg.sender] = block.timestamp;\n\n        // add unstaked user in the unStakedUserDetails mapping.\n        unStakedUserDetails[msg.sender] =\n            unStakedUserDetails[msg.sender] +\n            amount;\n        // add user to unstakers array *only* if they haven't unstake already.\n        if (!hasUnstaked[msg.sender]) {\n            unStakers.push(msg.sender);\n        }\n\n        hasUnstaked[msg.sender] = true;\n\n        // Update staking status\n        if (_balances[msg.sender] == 0) {\n            isStaking[msg.sender] = false;\n        }\n\n        emit Withdrawn(msg.sender, amount);\n    }\n\n    function getReward() public nonReentrant updateReward(msg.sender) {\n        uint256 reward = rewards[msg.sender];\n        if (reward > 0) {\n            rewards[msg.sender] = 0;\n            busdxToken.transfer(msg.sender, reward);\n            // Updating current timestamp.\n            stakedTimeStamp[msg.sender] = block.timestamp;\n            emit RewardPaid(msg.sender, reward);\n        }\n    }\n\n    function exit() external {\n        withdraw(_balances[msg.sender]);\n        getReward();\n    }\n\n    function stakeRewardTokens()\n        external\n        nonReentrant\n        whenNotPaused\n        updateReward(msg.sender)\n    {\n        uint256 amount = rewards[msg.sender];\n        require(amount > 0, \"Reward amount should be greater than 0\");\n        // Make the reward amount 0.\n        rewards[msg.sender] = 0;\n\n        _totalSupply = _totalSupply + amount;\n        _balances[msg.sender] = _balances[msg.sender] + amount;\n        // Updating current timestamp.\n        stakedTimeStamp[msg.sender] = block.timestamp;\n        // Add user to stakers array *only* if they haven't staked already\n        if (!hasStaked[msg.sender]) {\n            stakers.push(msg.sender);\n        }\n        // Update staking status\n        isStaking[msg.sender] = true;\n        hasStaked[msg.sender] = true;\n        emit Staked(msg.sender, amount);\n    }\n\n    // Reward distribution receipient contract.\n\n    modifier onlyRewardsDistribution() {\n        require(\n            msg.sender == rewardsDistribution,\n            \"Caller is not RewardsDistribution contract\"\n        );\n        _;\n    }\n\n    function setRewardsDistribution(address _rewardsDistribution)\n        external\n        onlyOwner\n    {\n        rewardsDistribution = _rewardsDistribution;\n    }\n\n    function setRewardRate(uint256 _rewardRate) external onlyOwner {\n        rewardRate = _rewardRate;\n    }\n\n    modifier updateReward(address account) {\n        if (account != address(0)) {\n            rewards[account] = earned(account);\n        }\n        _;\n    }\n\n    function pause() public onlyOwner {\n        _pause();\n    }\n\n    function unpause() public onlyOwner {\n        _unpause();\n    }\n}\n",
  "sourcePath": "/Users/aravinth/Repo/codegama/blockchain/ido_projects/ido-frontend-jason/src/contracts/RewardStaking.sol",
  "compiler": {
    "name": "solc",
    "version": "0.8.11+commit.d7f03943.Emscripten.clang"
  },
  "schemaVersion": "3.3.4",
  "updatedAt": "2022-01-11T08:30:28.217Z",
  "networkType": "ethereum",
  "devdoc": {
    "kind": "dev",
    "methods": {
      "getRoleAdmin(bytes32)": {
        "details": "Returns the admin role that controls `role`. See {grantRole} and {revokeRole}. To change a role's admin, use {_setRoleAdmin}."
      },
      "grantRole(bytes32,address)": {
        "details": "Grants `role` to `account`. If `account` had not been already granted `role`, emits a {RoleGranted} event. Requirements: - the caller must have ``role``'s admin role."
      },
      "hasRole(bytes32,address)": {
        "details": "Returns `true` if `account` has been granted `role`."
      },
      "owner()": {
        "details": "Returns the address of the current owner."
      },
      "paused()": {
        "details": "Returns true if the contract is paused, and false otherwise."
      },
      "renounceOwnership()": {
        "details": "Leaves the contract without owner. It will not be possible to call `onlyOwner` functions anymore. Can only be called by the current owner. NOTE: Renouncing ownership will leave the contract without an owner, thereby removing any functionality that is only available to the owner."
      },
      "renounceRole(bytes32,address)": {
        "details": "Revokes `role` from the calling account. Roles are often managed via {grantRole} and {revokeRole}: this function's purpose is to provide a mechanism for accounts to lose their privileges if they are compromised (such as when a trusted device is misplaced). If the calling account had been revoked `role`, emits a {RoleRevoked} event. Requirements: - the caller must be `account`."
      },
      "revokeRole(bytes32,address)": {
        "details": "Revokes `role` from `account`. If `account` had been granted `role`, emits a {RoleRevoked} event. Requirements: - the caller must have ``role``'s admin role."
      },
      "supportsInterface(bytes4)": {
        "details": "See {IERC165-supportsInterface}."
      },
      "transferOwnership(address)": {
        "details": "Transfers ownership of the contract to a new account (`newOwner`). Can only be called by the current owner."
      }
    },
    "version": 1
  },
  "userdoc": {
    "kind": "user",
    "methods": {},
    "version": 1
  }
}