{
  "contractName": "PolygonToken",
  "abi": [
    {
      "inputs": [],
      "stateMutability": "nonpayable",
      "type": "constructor"
    },
    {
      "anonymous": false,
      "inputs": [
        {
          "indexed": true,
          "internalType": "address",
          "name": "owner",
          "type": "address"
        },
        {
          "indexed": true,
          "internalType": "address",
          "name": "spender",
          "type": "address"
        },
        {
          "indexed": false,
          "internalType": "uint256",
          "name": "value",
          "type": "uint256"
        }
      ],
      "name": "Approval",
      "type": "event"
    },
    {
      "anonymous": false,
      "inputs": [
        {
          "indexed": true,
          "internalType": "address",
          "name": "from",
          "type": "address"
        },
        {
          "indexed": true,
          "internalType": "address",
          "name": "to",
          "type": "address"
        },
        {
          "indexed": false,
          "internalType": "uint256",
          "name": "value",
          "type": "uint256"
        }
      ],
      "name": "Transfer",
      "type": "event"
    },
    {
      "inputs": [
        {
          "internalType": "address",
          "name": "owner",
          "type": "address"
        },
        {
          "internalType": "address",
          "name": "spender",
          "type": "address"
        }
      ],
      "name": "allowance",
      "outputs": [
        {
          "internalType": "uint256",
          "name": "",
          "type": "uint256"
        }
      ],
      "stateMutability": "view",
      "type": "function",
      "constant": true
    },
    {
      "inputs": [
        {
          "internalType": "address",
          "name": "spender",
          "type": "address"
        },
        {
          "internalType": "uint256",
          "name": "amount",
          "type": "uint256"
        }
      ],
      "name": "approve",
      "outputs": [
        {
          "internalType": "bool",
          "name": "",
          "type": "bool"
        }
      ],
      "stateMutability": "nonpayable",
      "type": "function"
    },
    {
      "inputs": [
        {
          "internalType": "address",
          "name": "account",
          "type": "address"
        }
      ],
      "name": "balanceOf",
      "outputs": [
        {
          "internalType": "uint256",
          "name": "",
          "type": "uint256"
        }
      ],
      "stateMutability": "view",
      "type": "function",
      "constant": true
    },
    {
      "inputs": [],
      "name": "decimals",
      "outputs": [
        {
          "internalType": "uint8",
          "name": "",
          "type": "uint8"
        }
      ],
      "stateMutability": "view",
      "type": "function",
      "constant": true
    },
    {
      "inputs": [
        {
          "internalType": "address",
          "name": "spender",
          "type": "address"
        },
        {
          "internalType": "uint256",
          "name": "subtractedValue",
          "type": "uint256"
        }
      ],
      "name": "decreaseAllowance",
      "outputs": [
        {
          "internalType": "bool",
          "name": "",
          "type": "bool"
        }
      ],
      "stateMutability": "nonpayable",
      "type": "function"
    },
    {
      "inputs": [
        {
          "internalType": "address",
          "name": "spender",
          "type": "address"
        },
        {
          "internalType": "uint256",
          "name": "addedValue",
          "type": "uint256"
        }
      ],
      "name": "increaseAllowance",
      "outputs": [
        {
          "internalType": "bool",
          "name": "",
          "type": "bool"
        }
      ],
      "stateMutability": "nonpayable",
      "type": "function"
    },
    {
      "inputs": [],
      "name": "name",
      "outputs": [
        {
          "internalType": "string",
          "name": "",
          "type": "string"
        }
      ],
      "stateMutability": "view",
      "type": "function",
      "constant": true
    },
    {
      "inputs": [],
      "name": "owner",
      "outputs": [
        {
          "internalType": "address",
          "name": "",
          "type": "address"
        }
      ],
      "stateMutability": "view",
      "type": "function",
      "constant": true
    },
    {
      "inputs": [],
      "name": "symbol",
      "outputs": [
        {
          "internalType": "string",
          "name": "",
          "type": "string"
        }
      ],
      "stateMutability": "view",
      "type": "function",
      "constant": true
    },
    {
      "inputs": [],
      "name": "totalBurnedToken",
      "outputs": [
        {
          "internalType": "uint256",
          "name": "",
          "type": "uint256"
        }
      ],
      "stateMutability": "view",
      "type": "function",
      "constant": true
    },
    {
      "inputs": [],
      "name": "totalMintedToken",
      "outputs": [
        {
          "internalType": "uint256",
          "name": "",
          "type": "uint256"
        }
      ],
      "stateMutability": "view",
      "type": "function",
      "constant": true
    },
    {
      "inputs": [],
      "name": "totalSupply",
      "outputs": [
        {
          "internalType": "uint256",
          "name": "",
          "type": "uint256"
        }
      ],
      "stateMutability": "view",
      "type": "function",
      "constant": true
    },
    {
      "inputs": [
        {
          "internalType": "address",
          "name": "recipient",
          "type": "address"
        },
        {
          "internalType": "uint256",
          "name": "amount",
          "type": "uint256"
        }
      ],
      "name": "transfer",
      "outputs": [
        {
          "internalType": "bool",
          "name": "",
          "type": "bool"
        }
      ],
      "stateMutability": "nonpayable",
      "type": "function"
    },
    {
      "inputs": [
        {
          "internalType": "address",
          "name": "sender",
          "type": "address"
        },
        {
          "internalType": "address",
          "name": "recipient",
          "type": "address"
        },
        {
          "internalType": "uint256",
          "name": "amount",
          "type": "uint256"
        }
      ],
      "name": "transferFrom",
      "outputs": [
        {
          "internalType": "bool",
          "name": "",
          "type": "bool"
        }
      ],
      "stateMutability": "nonpayable",
      "type": "function"
    },
    {
      "inputs": [
        {
          "internalType": "address",
          "name": "to",
          "type": "address"
        },
        {
          "internalType": "uint256",
          "name": "amount",
          "type": "uint256"
        }
      ],
      "name": "mint",
      "outputs": [],
      "stateMutability": "nonpayable",
      "type": "function"
    },
    {
      "inputs": [
        {
          "internalType": "address",
          "name": "from",
          "type": "address"
        },
        {
          "internalType": "uint256",
          "name": "amount",
          "type": "uint256"
        }
      ],
      "name": "burn",
      "outputs": [],
      "stateMutability": "nonpayable",
      "type": "function"
    }
  ],
  "bytecode": "0x60806040523480156200001157600080fd5b506040518060400160405280600c81526020017f4c61756e636820546f6b656e00000000000000000000000000000000000000008152506040518060400160405280600281526020017f4c54000000000000000000000000000000000000000000000000000000000000815250816003908051906020019062000096929190620002c7565b508060049080519060200190620000af929190620002c7565b50505033600560006101000a81548173ffffffffffffffffffffffffffffffffffffffff021916908373ffffffffffffffffffffffffffffffffffffffff1602179055506200013533620001086200013b60201b60201c565b60ff16600a620001199190620004b7565b620f4240620001299190620005f4565b6200014460201b60201c565b62000729565b60006012905090565b600073ffffffffffffffffffffffffffffffffffffffff168273ffffffffffffffffffffffffffffffffffffffff161415620001b7576040517f08c379a0000000000000000000000000000000000000000000000000000000008152600401620001ae90620003af565b60405180910390fd5b620001cb60008383620002bd60201b60201c565b8060026000828254620001df9190620003ff565b92505081905550806000808473ffffffffffffffffffffffffffffffffffffffff1673ffffffffffffffffffffffffffffffffffffffff1681526020019081526020016000206000828254620002369190620003ff565b925050819055508173ffffffffffffffffffffffffffffffffffffffff16600073ffffffffffffffffffffffffffffffffffffffff167fddf252ad1be2c89b69c2b068fc378daa952ba7f163c4a11628f55a4df523b3ef836040516200029d9190620003d1565b60405180910390a3620002b960008383620002c260201b60201c565b5050565b505050565b505050565b828054620002d5906200065f565b90600052602060002090601f016020900481019282620002f9576000855562000345565b82601f106200031457805160ff191683800117855562000345565b8280016001018555821562000345579182015b828111156200034457825182559160200191906001019062000327565b5b50905062000354919062000358565b5090565b5b808211156200037357600081600090555060010162000359565b5090565b600062000386601f83620003ee565b9150620003938262000700565b602082019050919050565b620003a98162000655565b82525050565b60006020820190508181036000830152620003ca8162000377565b9050919050565b6000602082019050620003e860008301846200039e565b92915050565b600082825260208201905092915050565b60006200040c8262000655565b9150620004198362000655565b9250827fffffffffffffffffffffffffffffffffffffffffffffffffffffffffffffffff0382111562000451576200045062000695565b5b828201905092915050565b6000808291508390505b6001851115620004ae5780860481111562000486576200048562000695565b5b6001851615620004965780820291505b8081029050620004a685620006f3565b945062000466565b94509492505050565b6000620004c48262000655565b9150620004d18362000655565b9250620005007fffffffffffffffffffffffffffffffffffffffffffffffffffffffffffffffff848462000508565b905092915050565b6000826200051a5760019050620005ed565b816200052a5760009050620005ed565b81600181146200054357600281146200054e5762000584565b6001915050620005ed565b60ff84111562000563576200056262000695565b5b8360020a9150848211156200057d576200057c62000695565b5b50620005ed565b5060208310610133831016604e8410600b8410161715620005be5782820a905083811115620005b857620005b762000695565b5b620005ed565b620005cd84848460016200045c565b92509050818404811115620005e757620005e662000695565b5b81810290505b9392505050565b6000620006018262000655565b91506200060e8362000655565b9250817fffffffffffffffffffffffffffffffffffffffffffffffffffffffffffffffff04831182151516156200064a576200064962000695565b5b828202905092915050565b6000819050919050565b600060028204905060018216806200067857607f821691505b602082108114156200068f576200068e620006c4565b5b50919050565b7f4e487b7100000000000000000000000000000000000000000000000000000000600052601160045260246000fd5b7f4e487b7100000000000000000000000000000000000000000000000000000000600052602260045260246000fd5b60008160011c9050919050565b7f45524332303a206d696e7420746f20746865207a65726f206164647265737300600082015250565b611a2e80620007396000396000f3fe608060405234801561001057600080fd5b50600436106101005760003560e01c806340c10f19116100975780639dc29fac116100665780639dc29fac146102b3578063a457c2d7146102cf578063a9059cbb146102ff578063dd62ed3e1461032f57610100565b806340c10f191461022b57806370a08231146102475780638da5cb5b1461027757806395d89b411461029557610100565b806323b872dd116100d357806323b872dd1461018f5780632898410b146101bf578063313ce567146101dd57806339509351146101fb57610100565b806306fdde0314610105578063095ea7b3146101235780630de97c411461015357806318160ddd14610171575b600080fd5b61010d61035f565b60405161011a919061136e565b60405180910390f35b61013d60048036038101906101389190611125565b6103f1565b60405161014a9190611353565b60405180910390f35b61015b61040f565b60405161016891906114d0565b60405180910390f35b610179610415565b60405161018691906114d0565b60405180910390f35b6101a960048036038101906101a491906110d2565b61041f565b6040516101b69190611353565b60405180910390f35b6101c7610517565b6040516101d491906114d0565b60405180910390f35b6101e561051d565b6040516101f291906114eb565b60405180910390f35b61021560048036038101906102109190611125565b610526565b6040516102229190611353565b60405180910390f35b61024560048036038101906102409190611125565b6105d2565b005b610261600480360381019061025c9190611065565b6105f4565b60405161026e91906114d0565b60405180910390f35b61027f61063c565b60405161028c9190611338565b60405180910390f35b61029d610662565b6040516102aa919061136e565b60405180910390f35b6102cd60048036038101906102c89190611125565b6106f4565b005b6102e960048036038101906102e49190611125565b610716565b6040516102f69190611353565b60405180910390f35b61031960048036038101906103149190611125565b610801565b6040516103269190611353565b60405180910390f35b61034960048036038101906103449190611092565b61081f565b60405161035691906114d0565b60405180910390f35b60606003805461036e90611634565b80601f016020809104026020016040519081016040528092919081815260200182805461039a90611634565b80156103e75780601f106103bc576101008083540402835291602001916103e7565b820191906000526020600020905b8154815290600101906020018083116103ca57829003601f168201915b5050505050905090565b60006104056103fe6108a6565b84846108ae565b6001905092915050565b60065481565b6000600254905090565b600061042c848484610a79565b6000600160008673ffffffffffffffffffffffffffffffffffffffff1673ffffffffffffffffffffffffffffffffffffffff16815260200190815260200160002060006104776108a6565b73ffffffffffffffffffffffffffffffffffffffff1673ffffffffffffffffffffffffffffffffffffffff168152602001908152602001600020549050828110156104f7576040517f08c379a00000000000000000000000000000000000000000000000000000000081526004016104ee90611410565b60405180910390fd5b61050b856105036108a6565b8584036108ae565b60019150509392505050565b60075481565b60006012905090565b60006105c86105336108a6565b8484600160006105416108a6565b73ffffffffffffffffffffffffffffffffffffffff1673ffffffffffffffffffffffffffffffffffffffff16815260200190815260200160002060008873ffffffffffffffffffffffffffffffffffffffff1673ffffffffffffffffffffffffffffffffffffffff168152602001908152602001600020546105c39190611522565b6108ae565b6001905092915050565b6105dc8282610cfa565b806007546105ea9190611522565b6007819055505050565b60008060008373ffffffffffffffffffffffffffffffffffffffff1673ffffffffffffffffffffffffffffffffffffffff168152602001908152602001600020549050919050565b600560009054906101000a900473ffffffffffffffffffffffffffffffffffffffff1681565b60606004805461067190611634565b80601f016020809104026020016040519081016040528092919081815260200182805461069d90611634565b80156106ea5780601f106106bf576101008083540402835291602001916106ea565b820191906000526020600020905b8154815290600101906020018083116106cd57829003601f168201915b5050505050905090565b6106fe8282610e5a565b8060065461070c9190611522565b6006819055505050565b600080600160006107256108a6565b73ffffffffffffffffffffffffffffffffffffffff1673ffffffffffffffffffffffffffffffffffffffff16815260200190815260200160002060008573ffffffffffffffffffffffffffffffffffffffff1673ffffffffffffffffffffffffffffffffffffffff168152602001908152602001600020549050828110156107e2576040517f08c379a00000000000000000000000000000000000000000000000000000000081526004016107d990611490565b60405180910390fd5b6107f66107ed6108a6565b858584036108ae565b600191505092915050565b600061081561080e6108a6565b8484610a79565b6001905092915050565b6000600160008473ffffffffffffffffffffffffffffffffffffffff1673ffffffffffffffffffffffffffffffffffffffff16815260200190815260200160002060008373ffffffffffffffffffffffffffffffffffffffff1673ffffffffffffffffffffffffffffffffffffffff16815260200190815260200160002054905092915050565b600033905090565b600073ffffffffffffffffffffffffffffffffffffffff168373ffffffffffffffffffffffffffffffffffffffff16141561091e576040517f08c379a000000000000000000000000000000000000000000000000000000000815260040161091590611470565b60405180910390fd5b600073ffffffffffffffffffffffffffffffffffffffff168273ffffffffffffffffffffffffffffffffffffffff16141561098e576040517f08c379a0000000000000000000000000000000000000000000000000000000008152600401610985906113d0565b60405180910390fd5b80600160008573ffffffffffffffffffffffffffffffffffffffff1673ffffffffffffffffffffffffffffffffffffffff16815260200190815260200160002060008473ffffffffffffffffffffffffffffffffffffffff1673ffffffffffffffffffffffffffffffffffffffff168152602001908152602001600020819055508173ffffffffffffffffffffffffffffffffffffffff168373ffffffffffffffffffffffffffffffffffffffff167f8c5be1e5ebec7d5bd14f71427d1e84f3dd0314c0f7b2291e5b200ac8c7c3b92583604051610a6c91906114d0565b60405180910390a3505050565b600073ffffffffffffffffffffffffffffffffffffffff168373ffffffffffffffffffffffffffffffffffffffff161415610ae9576040517f08c379a0000000000000000000000000000000000000000000000000000000008152600401610ae090611450565b60405180910390fd5b600073ffffffffffffffffffffffffffffffffffffffff168273ffffffffffffffffffffffffffffffffffffffff161415610b59576040517f08c379a0000000000000000000000000000000000000000000000000000000008152600401610b5090611390565b60405180910390fd5b610b64838383611031565b60008060008573ffffffffffffffffffffffffffffffffffffffff1673ffffffffffffffffffffffffffffffffffffffff16815260200190815260200160002054905081811015610bea576040517f08c379a0000000000000000000000000000000000000000000000000000000008152600401610be1906113f0565b60405180910390fd5b8181036000808673ffffffffffffffffffffffffffffffffffffffff1673ffffffffffffffffffffffffffffffffffffffff16815260200190815260200160002081905550816000808573ffffffffffffffffffffffffffffffffffffffff1673ffffffffffffffffffffffffffffffffffffffff1681526020019081526020016000206000828254610c7d9190611522565b925050819055508273ffffffffffffffffffffffffffffffffffffffff168473ffffffffffffffffffffffffffffffffffffffff167fddf252ad1be2c89b69c2b068fc378daa952ba7f163c4a11628f55a4df523b3ef84604051610ce191906114d0565b60405180910390a3610cf4848484611036565b50505050565b600073ffffffffffffffffffffffffffffffffffffffff168273ffffffffffffffffffffffffffffffffffffffff161415610d6a576040517f08c379a0000000000000000000000000000000000000000000000000000000008152600401610d61906114b0565b60405180910390fd5b610d7660008383611031565b8060026000828254610d889190611522565b92505081905550806000808473ffffffffffffffffffffffffffffffffffffffff1673ffffffffffffffffffffffffffffffffffffffff1681526020019081526020016000206000828254610ddd9190611522565b925050819055508173ffffffffffffffffffffffffffffffffffffffff16600073ffffffffffffffffffffffffffffffffffffffff167fddf252ad1be2c89b69c2b068fc378daa952ba7f163c4a11628f55a4df523b3ef83604051610e4291906114d0565b60405180910390a3610e5660008383611036565b5050565b600073ffffffffffffffffffffffffffffffffffffffff168273ffffffffffffffffffffffffffffffffffffffff161415610eca576040517f08c379a0000000000000000000000000000000000000000000000000000000008152600401610ec190611430565b60405180910390fd5b610ed682600083611031565b60008060008473ffffffffffffffffffffffffffffffffffffffff1673ffffffffffffffffffffffffffffffffffffffff16815260200190815260200160002054905081811015610f5c576040517f08c379a0000000000000000000000000000000000000000000000000000000008152600401610f53906113b0565b60405180910390fd5b8181036000808573ffffffffffffffffffffffffffffffffffffffff1673ffffffffffffffffffffffffffffffffffffffff168152602001908152602001600020819055508160026000828254610fb39190611578565b92505081905550600073ffffffffffffffffffffffffffffffffffffffff168373ffffffffffffffffffffffffffffffffffffffff167fddf252ad1be2c89b69c2b068fc378daa952ba7f163c4a11628f55a4df523b3ef8460405161101891906114d0565b60405180910390a361102c83600084611036565b505050565b505050565b505050565b60008135905061104a816119ca565b92915050565b60008135905061105f816119e1565b92915050565b60006020828403121561107b5761107a6116c4565b5b60006110898482850161103b565b91505092915050565b600080604083850312156110a9576110a86116c4565b5b60006110b78582860161103b565b92505060206110c88582860161103b565b9150509250929050565b6000806000606084860312156110eb576110ea6116c4565b5b60006110f98682870161103b565b935050602061110a8682870161103b565b925050604061111b86828701611050565b9150509250925092565b6000806040838503121561113c5761113b6116c4565b5b600061114a8582860161103b565b925050602061115b85828601611050565b9150509250929050565b61116e816115ac565b82525050565b61117d816115be565b82525050565b600061118e82611506565b6111988185611511565b93506111a8818560208601611601565b6111b1816116c9565b840191505092915050565b60006111c9602383611511565b91506111d4826116da565b604082019050919050565b60006111ec602283611511565b91506111f782611729565b604082019050919050565b600061120f602283611511565b915061121a82611778565b604082019050919050565b6000611232602683611511565b915061123d826117c7565b604082019050919050565b6000611255602883611511565b915061126082611816565b604082019050919050565b6000611278602183611511565b915061128382611865565b604082019050919050565b600061129b602583611511565b91506112a6826118b4565b604082019050919050565b60006112be602483611511565b91506112c982611903565b604082019050919050565b60006112e1602583611511565b91506112ec82611952565b604082019050919050565b6000611304601f83611511565b915061130f826119a1565b602082019050919050565b611323816115ea565b82525050565b611332816115f4565b82525050565b600060208201905061134d6000830184611165565b92915050565b60006020820190506113686000830184611174565b92915050565b600060208201905081810360008301526113888184611183565b905092915050565b600060208201905081810360008301526113a9816111bc565b9050919050565b600060208201905081810360008301526113c9816111df565b9050919050565b600060208201905081810360008301526113e981611202565b9050919050565b6000602082019050818103600083015261140981611225565b9050919050565b6000602082019050818103600083015261142981611248565b9050919050565b600060208201905081810360008301526114498161126b565b9050919050565b600060208201905081810360008301526114698161128e565b9050919050565b60006020820190508181036000830152611489816112b1565b9050919050565b600060208201905081810360008301526114a9816112d4565b9050919050565b600060208201905081810360008301526114c9816112f7565b9050919050565b60006020820190506114e5600083018461131a565b92915050565b60006020820190506115006000830184611329565b92915050565b600081519050919050565b600082825260208201905092915050565b600061152d826115ea565b9150611538836115ea565b9250827fffffffffffffffffffffffffffffffffffffffffffffffffffffffffffffffff0382111561156d5761156c611666565b5b828201905092915050565b6000611583826115ea565b915061158e836115ea565b9250828210156115a1576115a0611666565b5b828203905092915050565b60006115b7826115ca565b9050919050565b60008115159050919050565b600073ffffffffffffffffffffffffffffffffffffffff82169050919050565b6000819050919050565b600060ff82169050919050565b60005b8381101561161f578082015181840152602081019050611604565b8381111561162e576000848401525b50505050565b6000600282049050600182168061164c57607f821691505b602082108114156116605761165f611695565b5b50919050565b7f4e487b7100000000000000000000000000000000000000000000000000000000600052601160045260246000fd5b7f4e487b7100000000000000000000000000000000000000000000000000000000600052602260045260246000fd5b600080fd5b6000601f19601f8301169050919050565b7f45524332303a207472616e7366657220746f20746865207a65726f206164647260008201527f6573730000000000000000000000000000000000000000000000000000000000602082015250565b7f45524332303a206275726e20616d6f756e7420657863656564732062616c616e60008201527f6365000000000000000000000000000000000000000000000000000000000000602082015250565b7f45524332303a20617070726f766520746f20746865207a65726f20616464726560008201527f7373000000000000000000000000000000000000000000000000000000000000602082015250565b7f45524332303a207472616e7366657220616d6f756e742065786365656473206260008201527f616c616e63650000000000000000000000000000000000000000000000000000602082015250565b7f45524332303a207472616e7366657220616d6f756e742065786365656473206160008201527f6c6c6f77616e6365000000000000000000000000000000000000000000000000602082015250565b7f45524332303a206275726e2066726f6d20746865207a65726f2061646472657360008201527f7300000000000000000000000000000000000000000000000000000000000000602082015250565b7f45524332303a207472616e736665722066726f6d20746865207a65726f20616460008201527f6472657373000000000000000000000000000000000000000000000000000000602082015250565b7f45524332303a20617070726f76652066726f6d20746865207a65726f2061646460008201527f7265737300000000000000000000000000000000000000000000000000000000602082015250565b7f45524332303a2064656372656173656420616c6c6f77616e63652062656c6f7760008201527f207a65726f000000000000000000000000000000000000000000000000000000602082015250565b7f45524332303a206d696e7420746f20746865207a65726f206164647265737300600082015250565b6119d3816115ac565b81146119de57600080fd5b50565b6119ea816115ea565b81146119f557600080fd5b5056fea2646970667358221220676df0b21f1069e81af08eadd4303d2f42719b8eb0bdf3d2572656db769927e364736f6c63430008060033",
  "immutableReferences": {},
  "source": "pragma solidity ^0.8.0;\n\nimport \"@openzeppelin/contracts/token/ERC20/ERC20.sol\";\n\ncontract PolygonToken is ERC20 {\n    address public owner;\n    uint256 public totalBurnedToken;\n    uint256 public totalMintedToken;\n\n    constructor() ERC20(\"Launch Token\", \"LT\") {\n        owner = msg.sender;\n        _mint(msg.sender, 1000000 * (10**uint256(decimals())));\n    }\n\n    function mint(address to, uint256 amount) public {\n        // require(msg.sender == owner, \"Caller is not a minter\");\n        _mint(to, amount);\n        totalMintedToken = totalMintedToken + amount;\n    }\n\n    function burn(address from, uint256 amount) public {\n        // require(msg.sender == owner, \"Caller is not a burner\");\n        _burn(from, amount);\n        totalBurnedToken = totalBurnedToken + amount;\n    }\n}\n",
  "sourcePath": "/Users/aravinth/Repo/codegama/blockchain/token-buy-sell/src/contracts/PolygonToken.sol",
  "compiler": {
    "name": "solc",
    "version": "0.8.6+commit.11564f7e.Emscripten.clang"
  },
  "schemaVersion": "3.2.3",
  "updatedAt": "2021-08-09T20:28:45.594Z",
  "networkType": "ethereum",
  "devdoc": {
    "kind": "dev",
    "methods": {
      "allowance(address,address)": {
        "details": "See {IERC20-allowance}."
      },
      "approve(address,uint256)": {
        "details": "See {IERC20-approve}. Requirements: - `spender` cannot be the zero address."
      },
      "balanceOf(address)": {
        "details": "See {IERC20-balanceOf}."
      },
      "decimals()": {
        "details": "Returns the number of decimals used to get its user representation. For example, if `decimals` equals `2`, a balance of `505` tokens should be displayed to a user as `5,05` (`505 / 10 ** 2`). Tokens usually opt for a value of 18, imitating the relationship between Ether and Wei. This is the value {ERC20} uses, unless this function is overridden; NOTE: This information is only used for _display_ purposes: it in no way affects any of the arithmetic of the contract, including {IERC20-balanceOf} and {IERC20-transfer}."
      },
      "decreaseAllowance(address,uint256)": {
        "details": "Atomically decreases the allowance granted to `spender` by the caller. This is an alternative to {approve} that can be used as a mitigation for problems described in {IERC20-approve}. Emits an {Approval} event indicating the updated allowance. Requirements: - `spender` cannot be the zero address. - `spender` must have allowance for the caller of at least `subtractedValue`."
      },
      "increaseAllowance(address,uint256)": {
        "details": "Atomically increases the allowance granted to `spender` by the caller. This is an alternative to {approve} that can be used as a mitigation for problems described in {IERC20-approve}. Emits an {Approval} event indicating the updated allowance. Requirements: - `spender` cannot be the zero address."
      },
      "name()": {
        "details": "Returns the name of the token."
      },
      "symbol()": {
        "details": "Returns the symbol of the token, usually a shorter version of the name."
      },
      "totalSupply()": {
        "details": "See {IERC20-totalSupply}."
      },
      "transfer(address,uint256)": {
        "details": "See {IERC20-transfer}. Requirements: - `recipient` cannot be the zero address. - the caller must have a balance of at least `amount`."
      },
      "transferFrom(address,address,uint256)": {
        "details": "See {IERC20-transferFrom}. Emits an {Approval} event indicating the updated allowance. This is not required by the EIP. See the note at the beginning of {ERC20}. Requirements: - `sender` and `recipient` cannot be the zero address. - `sender` must have a balance of at least `amount`. - the caller must have allowance for ``sender``'s tokens of at least `amount`."
      }
    },
    "version": 1
  },
  "userdoc": {
    "kind": "user",
    "methods": {},
    "version": 1
  }
}