{
  "contractName": "StakingPoll",
  "abi": [
    {
      "inputs": [
        {
          "internalType": "contract PolygonToken",
          "name": "_pToken",
          "type": "address"
        },
        {
          "internalType": "string",
          "name": "_name",
          "type": "string"
        }
      ],
      "stateMutability": "nonpayable",
      "type": "constructor"
    },
    {
      "inputs": [
        {
          "internalType": "address",
          "name": "",
          "type": "address"
        }
      ],
      "name": "hasStaked",
      "outputs": [
        {
          "internalType": "bool",
          "name": "",
          "type": "bool"
        }
      ],
      "stateMutability": "view",
      "type": "function",
      "constant": true
    },
    {
      "inputs": [
        {
          "internalType": "address",
          "name": "",
          "type": "address"
        }
      ],
      "name": "hasUnstaked",
      "outputs": [
        {
          "internalType": "bool",
          "name": "",
          "type": "bool"
        }
      ],
      "stateMutability": "view",
      "type": "function",
      "constant": true
    },
    {
      "inputs": [
        {
          "internalType": "address",
          "name": "",
          "type": "address"
        }
      ],
      "name": "isStaking",
      "outputs": [
        {
          "internalType": "bool",
          "name": "",
          "type": "bool"
        }
      ],
      "stateMutability": "view",
      "type": "function",
      "constant": true
    },
    {
      "inputs": [],
      "name": "name",
      "outputs": [
        {
          "internalType": "string",
          "name": "",
          "type": "string"
        }
      ],
      "stateMutability": "view",
      "type": "function",
      "constant": true
    },
    {
      "inputs": [],
      "name": "owner",
      "outputs": [
        {
          "internalType": "address",
          "name": "",
          "type": "address"
        }
      ],
      "stateMutability": "view",
      "type": "function",
      "constant": true
    },
    {
      "inputs": [],
      "name": "pToken",
      "outputs": [
        {
          "internalType": "contract PolygonToken",
          "name": "",
          "type": "address"
        }
      ],
      "stateMutability": "view",
      "type": "function",
      "constant": true
    },
    {
      "inputs": [
        {
          "internalType": "uint256",
          "name": "",
          "type": "uint256"
        }
      ],
      "name": "stakers",
      "outputs": [
        {
          "internalType": "address",
          "name": "",
          "type": "address"
        }
      ],
      "stateMutability": "view",
      "type": "function",
      "constant": true
    },
    {
      "inputs": [],
      "name": "stakingBalToBeBurned",
      "outputs": [
        {
          "internalType": "uint256",
          "name": "",
          "type": "uint256"
        }
      ],
      "stateMutability": "view",
      "type": "function",
      "constant": true
    },
    {
      "inputs": [
        {
          "internalType": "address",
          "name": "",
          "type": "address"
        }
      ],
      "name": "stakingBalance",
      "outputs": [
        {
          "internalType": "uint256",
          "name": "",
          "type": "uint256"
        }
      ],
      "stateMutability": "view",
      "type": "function",
      "constant": true
    },
    {
      "inputs": [],
      "name": "totalBurnedToken",
      "outputs": [
        {
          "internalType": "uint256",
          "name": "",
          "type": "uint256"
        }
      ],
      "stateMutability": "view",
      "type": "function",
      "constant": true
    },
    {
      "inputs": [],
      "name": "totalMintedToken",
      "outputs": [
        {
          "internalType": "uint256",
          "name": "",
          "type": "uint256"
        }
      ],
      "stateMutability": "view",
      "type": "function",
      "constant": true
    },
    {
      "inputs": [],
      "name": "totalStakingBalance",
      "outputs": [
        {
          "internalType": "uint256",
          "name": "",
          "type": "uint256"
        }
      ],
      "stateMutability": "view",
      "type": "function",
      "constant": true
    },
    {
      "inputs": [
        {
          "internalType": "address",
          "name": "",
          "type": "address"
        }
      ],
      "name": "unStakedUserDetails",
      "outputs": [
        {
          "internalType": "uint256",
          "name": "",
          "type": "uint256"
        }
      ],
      "stateMutability": "view",
      "type": "function",
      "constant": true
    },
    {
      "inputs": [
        {
          "internalType": "uint256",
          "name": "",
          "type": "uint256"
        }
      ],
      "name": "unStakers",
      "outputs": [
        {
          "internalType": "address",
          "name": "",
          "type": "address"
        }
      ],
      "stateMutability": "view",
      "type": "function",
      "constant": true
    },
    {
      "inputs": [
        {
          "internalType": "uint256",
          "name": "_amount",
          "type": "uint256"
        }
      ],
      "name": "stakeTokens",
      "outputs": [],
      "stateMutability": "nonpayable",
      "type": "function"
    },
    {
      "inputs": [
        {
          "internalType": "uint256",
          "name": "_amount",
          "type": "uint256"
        }
      ],
      "name": "unstakeTokens",
      "outputs": [],
      "stateMutability": "nonpayable",
      "type": "function"
    },
    {
      "inputs": [],
      "name": "totalStakeBalance",
      "outputs": [
        {
          "internalType": "uint256",
          "name": "bal",
          "type": "uint256"
        }
      ],
      "stateMutability": "nonpayable",
      "type": "function"
    },
    {
      "inputs": [
        {
          "internalType": "address",
          "name": "stakingPollContractAddress",
          "type": "address"
        }
      ],
      "name": "burnStakedTokens",
      "outputs": [],
      "stateMutability": "nonpayable",
      "type": "function"
    },
    {
      "inputs": [],
      "name": "mintUnstakedTokens",
      "outputs": [],
      "stateMutability": "nonpayable",
      "type": "function"
    },
    {
      "inputs": [
        {
          "internalType": "uint256",
          "name": "_totalProjectToken",
          "type": "uint256"
        },
        {
          "internalType": "address",
          "name": "projectOwnerAddress",
          "type": "address"
        }
      ],
      "name": "mintRemainingToken",
      "outputs": [],
      "stateMutability": "nonpayable",
      "type": "function"
    }
  ],
  "bytecode": "0x60806040523480156200001157600080fd5b50604051620023dc380380620023dc83398181016040528101906200003791906200021f565b81600260006101000a81548173ffffffffffffffffffffffffffffffffffffffff021916908373ffffffffffffffffffffffffffffffffffffffff160217905550806000908051906020019062000090929190620000da565b5033600160006101000a81548173ffffffffffffffffffffffffffffffffffffffff021916908373ffffffffffffffffffffffffffffffffffffffff16021790555050506200046b565b828054620000e89062000362565b90600052602060002090601f0160209004810192826200010c576000855562000158565b82601f106200012757805160ff191683800117855562000158565b8280016001018555821562000158579182015b82811115620001575782518255916020019190600101906200013a565b5b5090506200016791906200016b565b5090565b5b80821115620001865760008160009055506001016200016c565b5090565b6000620001a16200019b84620002ae565b62000285565b905082815260208101848484011115620001c057620001bf62000431565b5b620001cd8482856200032c565b509392505050565b600081519050620001e68162000451565b92915050565b600082601f8301126200020457620002036200042c565b5b8151620002168482602086016200018a565b91505092915050565b600080604083850312156200023957620002386200043b565b5b60006200024985828601620001d5565b925050602083015167ffffffffffffffff8111156200026d576200026c62000436565b5b6200027b85828601620001ec565b9150509250929050565b600062000291620002a4565b90506200029f828262000398565b919050565b6000604051905090565b600067ffffffffffffffff821115620002cc57620002cb620003fd565b5b620002d78262000440565b9050602081019050919050565b6000620002f1826200030c565b9050919050565b60006200030582620002e4565b9050919050565b600073ffffffffffffffffffffffffffffffffffffffff82169050919050565b60005b838110156200034c5780820151818401526020810190506200032f565b838111156200035c576000848401525b50505050565b600060028204905060018216806200037b57607f821691505b60208210811415620003925762000391620003ce565b5b50919050565b620003a38262000440565b810181811067ffffffffffffffff82111715620003c557620003c4620003fd565b5b80604052505050565b7f4e487b7100000000000000000000000000000000000000000000000000000000600052602260045260246000fd5b7f4e487b7100000000000000000000000000000000000000000000000000000000600052604160045260246000fd5b600080fd5b600080fd5b600080fd5b600080fd5b6000601f19601f8301169050919050565b6200045c81620002f8565b81146200046857600080fd5b50565b611f61806200047b6000396000f3fe608060405234801561001057600080fd5b506004361061012c5760003560e01c8063608e4dd0116100ad578063c93c8f3411610071578063c93c8f341461030d578063e0359d2a1461033d578063e766c8351461036d578063f895d1c21461038b578063fd5e6dd1146103bb5761012c565b8063608e4dd0146102575780636f49712b146102735780637547c7a3146102a35780638da5cb5b146102bf578063b252ccc1146102dd5761012c565b806338ce9d79116100f457806338ce9d79146101c557806345bc78ab146101e35780635220d8de1461021357806358a06f071461022f5780635d4d1fdf1461024d5761012c565b806306fdde03146101315780630de97c411461014f5780631724380f1461016d5780632898410b1461018957806334949cc1146101a7575b600080fd5b6101396103eb565b6040516101469190611941565b60405180910390f35b610157610479565b6040516101649190611a43565b60405180910390f35b6101876004803603810190610182919061165f565b61047f565b005b610191610606565b60405161019e9190611a43565b60405180910390f35b6101af61060c565b6040516101bc9190611a43565b60405180910390f35b6101cd6106d2565b6040516101da9190611a43565b60405180910390f35b6101fd60048036038101906101f8919061165f565b6106d8565b60405161020a9190611a43565b60405180910390f35b61022d600480360381019061022891906116e6565b6106f0565b005b610237610b41565b6040516102449190611926565b60405180910390f35b610255610b67565b005b610271600480360381019061026c91906116b9565b610e38565b005b61028d6004803603810190610288919061165f565b61119b565b60405161029a919061190b565b60405180910390f35b6102bd60048036038101906102b891906116b9565b6111bb565b005b6102c76114ba565b6040516102d49190611890565b60405180910390f35b6102f760048036038101906102f2919061165f565b6114e0565b6040516103049190611a43565b60405180910390f35b6103276004803603810190610322919061165f565b6114f8565b604051610334919061190b565b60405180910390f35b6103576004803603810190610352919061165f565b611518565b604051610364919061190b565b60405180910390f35b610375611538565b6040516103829190611a43565b60405180910390f35b6103a560048036038101906103a091906116b9565b61153e565b6040516103b29190611890565b60405180910390f35b6103d560048036038101906103d091906116b9565b61157d565b6040516103e29190611890565b60405180910390f35b600080546103f890611c2e565b80601f016020809104026020016040519081016040528092919081815260200182805461042490611c2e565b80156104715780601f1061044657610100808354040283529160200191610471565b820191906000526020600020905b81548152906001019060200180831161045457829003601f168201915b505050505081565b60085481565b600160009054906101000a900473ffffffffffffffffffffffffffffffffffffffff1673ffffffffffffffffffffffffffffffffffffffff163373ffffffffffffffffffffffffffffffffffffffff161461050f576040517f08c379a000000000000000000000000000000000000000000000000000000000815260040161050690611983565b60405180910390fd5b6000600d5411610554576040517f08c379a000000000000000000000000000000000000000000000000000000000815260040161054b906119e3565b60405180910390fd5b600260009054906101000a900473ffffffffffffffffffffffffffffffffffffffff1673ffffffffffffffffffffffffffffffffffffffff16639dc29fac82600d546040518363ffffffff1660e01b81526004016105b39291906118e2565b600060405180830381600087803b1580156105cd57600080fd5b505af11580156105e1573d6000803e3d6000fd5b50505050600d546008546105f59190611a7a565b6008819055506000600d8190555050565b60095481565b60008060005b6003805490508110156106c35760006003828154811061063557610634611d36565b5b9060005260206000200160009054906101000a900473ffffffffffffffffffffffffffffffffffffffff16905082600460008373ffffffffffffffffffffffffffffffffffffffff1673ffffffffffffffffffffffffffffffffffffffff168152602001908152602001600020546106ad9190611a7a565b92505080806106bb90611c60565b915050610612565b50806007819055508091505090565b600d5481565b60046020528060005260406000206000915090505481565b600160009054906101000a900473ffffffffffffffffffffffffffffffffffffffff1673ffffffffffffffffffffffffffffffffffffffff163373ffffffffffffffffffffffffffffffffffffffff1614610780576040517f08c379a000000000000000000000000000000000000000000000000000000000815260040161077790611983565b60405180910390fd5b6000600d54146107c5576040517f08c379a00000000000000000000000000000000000000000000000000000000081526004016107bc90611963565b60405180910390fd5b60006107cf61060c565b905082811015610814576040517f08c379a000000000000000000000000000000000000000000000000000000000815260040161080b90611a03565b60405180910390fd5b600080600090505b600380549050811015610a8c5760006003828154811061083f5761083e611d36565b5b9060005260206000200160009054906101000a900473ffffffffffffffffffffffffffffffffffffffff16905060006108b7600460008473ffffffffffffffffffffffffffffffffffffffff1673ffffffffffffffffffffffffffffffffffffffff16815260200190815260200160002054866115bc565b9050600064e8d4a5100082896108cd9190611b01565b6108d79190611ad0565b9050600081600460008673ffffffffffffffffffffffffffffffffffffffff1673ffffffffffffffffffffffffffffffffffffffff168152602001908152602001600020546109269190611b5b565b90506000811115610a7557600260009054906101000a900473ffffffffffffffffffffffffffffffffffffffff1673ffffffffffffffffffffffffffffffffffffffff166340c10f1985836040518363ffffffff1660e01b815260040161098e9291906118e2565b600060405180830381600087803b1580156109a857600080fd5b505af11580156109bc573d6000803e3d6000fd5b50505050600460008573ffffffffffffffffffffffffffffffffffffffff1673ffffffffffffffffffffffffffffffffffffffff16815260200190815260200160002060009055600560008573ffffffffffffffffffffffffffffffffffffffff1673ffffffffffffffffffffffffffffffffffffffff16815260200190815260200160002060006101000a81549060ff021916905580600954610a609190611a7a565b6009819055508086610a729190611a7a565b95505b505050508080610a8490611c60565b91505061081c565b5060036000610a9b91906115e2565b60008183610aa99190611b5b565b9050600260009054906101000a900473ffffffffffffffffffffffffffffffffffffffff1673ffffffffffffffffffffffffffffffffffffffff166340c10f1985836040518363ffffffff1660e01b8152600401610b089291906118e2565b600060405180830381600087803b158015610b2257600080fd5b505af1158015610b36573d6000803e3d6000fd5b505050505050505050565b600260009054906101000a900473ffffffffffffffffffffffffffffffffffffffff1681565b600160009054906101000a900473ffffffffffffffffffffffffffffffffffffffff1673ffffffffffffffffffffffffffffffffffffffff163373ffffffffffffffffffffffffffffffffffffffff1614610bf7576040517f08c379a0000000000000000000000000000000000000000000000000000000008152600401610bee90611983565b60405180910390fd5b6000600d5414610c3c576040517f08c379a0000000000000000000000000000000000000000000000000000000008152600401610c3390611963565b60405180910390fd5b60005b600b80549050811015610e27576000600b8281548110610c6257610c61611d36565b5b9060005260206000200160009054906101000a900473ffffffffffffffffffffffffffffffffffffffff1690506000600a60008373ffffffffffffffffffffffffffffffffffffffff1673ffffffffffffffffffffffffffffffffffffffff1681526020019081526020016000205490506000811115610e1257600260009054906101000a900473ffffffffffffffffffffffffffffffffffffffff1673ffffffffffffffffffffffffffffffffffffffff166340c10f1983836040518363ffffffff1660e01b8152600401610d399291906118e2565b600060405180830381600087803b158015610d5357600080fd5b505af1158015610d67573d6000803e3d6000fd5b50505050600a60008373ffffffffffffffffffffffffffffffffffffffff1673ffffffffffffffffffffffffffffffffffffffff16815260200190815260200160002060009055600c60008373ffffffffffffffffffffffffffffffffffffffff1673ffffffffffffffffffffffffffffffffffffffff16815260200190815260200160002060006101000a81549060ff021916905580600954610e0b9190611a7a565b6009819055505b50508080610e1f90611c60565b915050610c3f565b50600b6000610e3691906115e2565b565b60008111610e7b576040517f08c379a0000000000000000000000000000000000000000000000000000000008152600401610e72906119a3565b60405180910390fd5b6000600460003373ffffffffffffffffffffffffffffffffffffffff1673ffffffffffffffffffffffffffffffffffffffff16815260200190815260200160002054905060008111610f02576040517f08c379a0000000000000000000000000000000000000000000000000000000008152600401610ef9906119a3565b60405180910390fd5b80821115610f45576040517f08c379a0000000000000000000000000000000000000000000000000000000008152600401610f3c906119c3565b60405180910390fd5b60008282610f539190611b5b565b905082600a60003373ffffffffffffffffffffffffffffffffffffffff1673ffffffffffffffffffffffffffffffffffffffff16815260200190815260200160002054610fa09190611a7a565b600a60003373ffffffffffffffffffffffffffffffffffffffff1673ffffffffffffffffffffffffffffffffffffffff16815260200190815260200160002081905550600c60003373ffffffffffffffffffffffffffffffffffffffff1673ffffffffffffffffffffffffffffffffffffffff16815260200190815260200160002060009054906101000a900460ff1661109857600b339080600181540180825580915050600190039060005260206000200160009091909190916101000a81548173ffffffffffffffffffffffffffffffffffffffff021916908373ffffffffffffffffffffffffffffffffffffffff1602179055505b6001600c60003373ffffffffffffffffffffffffffffffffffffffff1673ffffffffffffffffffffffffffffffffffffffff16815260200190815260200160002060006101000a81548160ff02191690831515021790555080600460003373ffffffffffffffffffffffffffffffffffffffff1673ffffffffffffffffffffffffffffffffffffffff168152602001908152602001600020819055506000811415611196576000600660003373ffffffffffffffffffffffffffffffffffffffff1673ffffffffffffffffffffffffffffffffffffffff16815260200190815260200160002060006101000a81548160ff0219169083151502179055505b505050565b60066020528060005260406000206000915054906101000a900460ff1681565b600081116111fe576040517f08c379a00000000000000000000000000000000000000000000000000000000081526004016111f590611a23565b60405180910390fd5b600260009054906101000a900473ffffffffffffffffffffffffffffffffffffffff1673ffffffffffffffffffffffffffffffffffffffff166323b872dd3330846040518463ffffffff1660e01b815260040161125d939291906118ab565b602060405180830381600087803b15801561127757600080fd5b505af115801561128b573d6000803e3d6000fd5b505050506040513d601f19601f820116820180604052508101906112af919061168c565b5080600460003373ffffffffffffffffffffffffffffffffffffffff1673ffffffffffffffffffffffffffffffffffffffff168152602001908152602001600020546112fb9190611a7a565b600460003373ffffffffffffffffffffffffffffffffffffffff1673ffffffffffffffffffffffffffffffffffffffff1681526020019081526020016000208190555080600d5461134c9190611a7a565b600d81905550600560003373ffffffffffffffffffffffffffffffffffffffff1673ffffffffffffffffffffffffffffffffffffffff16815260200190815260200160002060009054906101000a900460ff16611407576003339080600181540180825580915050600190039060005260206000200160009091909190916101000a81548173ffffffffffffffffffffffffffffffffffffffff021916908373ffffffffffffffffffffffffffffffffffffffff1602179055505b6001600660003373ffffffffffffffffffffffffffffffffffffffff1673ffffffffffffffffffffffffffffffffffffffff16815260200190815260200160002060006101000a81548160ff0219169083151502179055506001600560003373ffffffffffffffffffffffffffffffffffffffff1673ffffffffffffffffffffffffffffffffffffffff16815260200190815260200160002060006101000a81548160ff02191690831515021790555050565b600160009054906101000a900473ffffffffffffffffffffffffffffffffffffffff1681565b600a6020528060005260406000206000915090505481565b60056020528060005260406000206000915054906101000a900460ff1681565b600c6020528060005260406000206000915054906101000a900460ff1681565b60075481565b600b818154811061154e57600080fd5b906000526020600020016000915054906101000a900473ffffffffffffffffffffffffffffffffffffffff1681565b6003818154811061158d57600080fd5b906000526020600020016000915054906101000a900473ffffffffffffffffffffffffffffffffffffffff1681565b60008164e8d4a51000846115d09190611b01565b6115da9190611ad0565b905092915050565b50805460008255906000526020600020908101906116009190611603565b50565b5b8082111561161c576000816000905550600101611604565b5090565b60008135905061162f81611ee6565b92915050565b60008151905061164481611efd565b92915050565b60008135905061165981611f14565b92915050565b60006020828403121561167557611674611d65565b5b600061168384828501611620565b91505092915050565b6000602082840312156116a2576116a1611d65565b5b60006116b084828501611635565b91505092915050565b6000602082840312156116cf576116ce611d65565b5b60006116dd8482850161164a565b91505092915050565b600080604083850312156116fd576116fc611d65565b5b600061170b8582860161164a565b925050602061171c85828601611620565b9150509250929050565b61172f81611b8f565b82525050565b61173e81611ba1565b82525050565b61174d81611bd7565b82525050565b600061175e82611a5e565b6117688185611a69565b9350611778818560208601611bfb565b61178181611d6a565b840191505092915050565b6000611799601a83611a69565b91506117a482611d7b565b602082019050919050565b60006117bc601883611a69565b91506117c782611da4565b602082019050919050565b60006117df601b83611a69565b91506117ea82611dcd565b602082019050919050565b6000611802603383611a69565b915061180d82611df6565b604082019050919050565b6000611825601783611a69565b915061183082611e45565b602082019050919050565b6000611848603883611a69565b915061185382611e6e565b604082019050919050565b600061186b601283611a69565b915061187682611ebd565b602082019050919050565b61188a81611bcd565b82525050565b60006020820190506118a56000830184611726565b92915050565b60006060820190506118c06000830186611726565b6118cd6020830185611726565b6118da6040830184611881565b949350505050565b60006040820190506118f76000830185611726565b6119046020830184611881565b9392505050565b60006020820190506119206000830184611735565b92915050565b600060208201905061193b6000830184611744565b92915050565b6000602082019050818103600083015261195b8184611753565b905092915050565b6000602082019050818103600083015261197c8161178c565b9050919050565b6000602082019050818103600083015261199c816117af565b9050919050565b600060208201905081810360008301526119bc816117d2565b9050919050565b600060208201905081810360008301526119dc816117f5565b9050919050565b600060208201905081810360008301526119fc81611818565b9050919050565b60006020820190508181036000830152611a1c8161183b565b9050919050565b60006020820190508181036000830152611a3c8161185e565b9050919050565b6000602082019050611a586000830184611881565b92915050565b600081519050919050565b600082825260208201905092915050565b6000611a8582611bcd565b9150611a9083611bcd565b9250827fffffffffffffffffffffffffffffffffffffffffffffffffffffffffffffffff03821115611ac557611ac4611ca9565b5b828201905092915050565b6000611adb82611bcd565b9150611ae683611bcd565b925082611af657611af5611cd8565b5b828204905092915050565b6000611b0c82611bcd565b9150611b1783611bcd565b9250817fffffffffffffffffffffffffffffffffffffffffffffffffffffffffffffffff0483118215151615611b5057611b4f611ca9565b5b828202905092915050565b6000611b6682611bcd565b9150611b7183611bcd565b925082821015611b8457611b83611ca9565b5b828203905092915050565b6000611b9a82611bad565b9050919050565b60008115159050919050565b600073ffffffffffffffffffffffffffffffffffffffff82169050919050565b6000819050919050565b6000611be282611be9565b9050919050565b6000611bf482611bad565b9050919050565b60005b83811015611c19578082015181840152602081019050611bfe565b83811115611c28576000848401525b50505050565b60006002820490506001821680611c4657607f821691505b60208210811415611c5a57611c59611d07565b5b50919050565b6000611c6b82611bcd565b91507fffffffffffffffffffffffffffffffffffffffffffffffffffffffffffffffff821415611c9e57611c9d611ca9565b5b600182019050919050565b7f4e487b7100000000000000000000000000000000000000000000000000000000600052601160045260246000fd5b7f4e487b7100000000000000000000000000000000000000000000000000000000600052601260045260246000fd5b7f4e487b7100000000000000000000000000000000000000000000000000000000600052602260045260246000fd5b7f4e487b7100000000000000000000000000000000000000000000000000000000600052603260045260246000fd5b600080fd5b6000601f19601f8301169050919050565b7f4e65656420746f206275726e20616c6c2074686520746f6b656e000000000000600082015250565b7f63616c6c6572206d75737420626520746865206f776e65720000000000000000600082015250565b7f7374616b696e672062616c616e63652063616e6e6f7420626520300000000000600082015250565b7f596f7572207374616b696e672062616c616365206973206c657373657220746860008201527f616e2074686520676976656e20616d6f756e7400000000000000000000000000602082015250565b7f6275726e20616d6f756e742063616e6e6f742062652030000000000000000000600082015250565b7f746f74616c205374616b65642069732073686f756c64206e6f74206265206c6560008201527f73736572207468616e2070726f6a65637420746f6b656e2e0000000000000000602082015250565b7f616d6f756e742063616e6e6f7420626520300000000000000000000000000000600082015250565b611eef81611b8f565b8114611efa57600080fd5b50565b611f0681611ba1565b8114611f1157600080fd5b50565b611f1d81611bcd565b8114611f2857600080fd5b5056fea264697066735822122030ed1c2ef7763e72193db2c2d4cec528ad397f24754e13a663b8d4c5e7bd359a64736f6c63430008060033",
  "immutableReferences": {},
  "source": "pragma solidity ^0.8.0;\n\nimport \"./PolygonToken.sol\";\n\ncontract StakingPoll {\n    string public name;\n    address public owner;\n    PolygonToken public pToken;\n\n    address[] public stakers;\n    mapping(address => uint256) public stakingBalance;\n    mapping(address => bool) public hasStaked;\n    mapping(address => bool) public isStaking;\n\n    uint256 public totalStakingBalance;\n    uint256 public totalBurnedToken;\n    uint256 public totalMintedToken;\n\n    // This unstake is variables used for minting the unstaked tokens.\n    mapping(address => uint256) public unStakedUserDetails;\n    address[] public unStakers;\n    mapping(address => bool) public hasUnstaked;\n\n    // This used for burning the staked tokens.\n    uint256 public stakingBalToBeBurned;\n\n    constructor(PolygonToken _pToken, string memory _name) {\n        pToken = _pToken;\n        name = _name;\n        owner = msg.sender;\n    }\n\n    function stakeTokens(uint256 _amount) public {\n        // Require amount greater than 0\n        require(_amount > 0, \"amount cannot be 0\");\n\n        // Trasnfer Mock Dai tokens to this contract for staking\n        pToken.transferFrom(msg.sender, address(this), _amount);\n\n        // Update staking balance\n        stakingBalance[msg.sender] = stakingBalance[msg.sender] + _amount;\n\n        // Update staking balance in temp varialble.\n        stakingBalToBeBurned = stakingBalToBeBurned + _amount;\n\n        // Add user to stakers array *only* if they haven't staked already\n        if (!hasStaked[msg.sender]) {\n            stakers.push(msg.sender);\n        }\n\n        // Update staking status\n        isStaking[msg.sender] = true;\n        hasStaked[msg.sender] = true;\n    }\n\n    // Unstaking Tokens (Withdraw) -- Just updating the pool.\n    function unstakeTokens(uint256 _amount) public {\n        // check the amount is greater than 0\n        require(_amount > 0, \"staking balance cannot be 0\");\n\n        // Fetch staking balance\n        uint256 balance = stakingBalance[msg.sender];\n\n        // Require amount greater than 0\n        require(balance > 0, \"staking balance cannot be 0\");\n\n        // Check given amount is available in the balace.\n        require(\n            _amount <= balance,\n            \"Your staking balace is lesser than the given amount\"\n        );\n\n        uint256 remaingBalance = balance - _amount;\n\n        // add unstaked user in the unStakedUserDetails mapping.\n        unStakedUserDetails[msg.sender] =\n            unStakedUserDetails[msg.sender] +\n            _amount;\n\n        // add user to unstakers array *only* if they haven't unstake already.\n        if (!hasUnstaked[msg.sender]) {\n            unStakers.push(msg.sender);\n        }\n\n        hasUnstaked[msg.sender] = true;\n\n        // Transfer Mock Dai tokens to this contract for staking\n        // pToken.transfer(msg.sender, _amount);\n\n        // mint token to the user who unstake the token.\n        // pToken.mint(unstakeUserAddress, _amount);\n\n        // Reset staking balance\n        stakingBalance[msg.sender] = remaingBalance;\n\n        // Update staking status\n        if (remaingBalance == 0) {\n            isStaking[msg.sender] = false;\n        }\n    }\n\n    function totalStakeBalance() public returns (uint256 bal) {\n        uint256 balance;\n        for (uint256 i = 0; i < stakers.length; i++) {\n            address recipient = stakers[i];\n            balance = stakingBalance[recipient] + balance;\n        }\n        totalStakingBalance = balance;\n        return balance;\n    }\n\n    // burn all the token in the staking poll\n    function burnStakedTokens(address stakingPollContractAddress) public {\n        // Only owner can call this function\n        require(msg.sender == owner, \"caller must be the owner\");\n\n        // Require amount greater than 0\n        require(stakingBalToBeBurned > 0, \"burn amount cannot be 0\");\n\n        // call burn function.\n        pToken.burn(stakingPollContractAddress, stakingBalToBeBurned);\n\n        // Total burned token;\n        totalBurnedToken = totalBurnedToken + stakingBalToBeBurned;\n        stakingBalToBeBurned = 0;\n    }\n\n    //mint all the unstaked token to respective users.\n\n    function mintUnstakedTokens() public {\n        // Only owner can call this function\n        require(msg.sender == owner, \"caller must be the owner\");\n\n        require(stakingBalToBeBurned == 0, \"Need to burn all the token\");\n        // Issue tokens to all unStakers\n        for (uint256 i = 0; i < unStakers.length; i++) {\n            address recipient = unStakers[i];\n            uint256 balance = unStakedUserDetails[recipient];\n            if (balance > 0) {\n                pToken.mint(recipient, balance);\n                delete unStakedUserDetails[recipient];\n                delete hasUnstaked[recipient];\n                totalMintedToken = totalMintedToken + balance;\n            }\n        }\n        delete unStakers;\n    }\n\n    // find the percentage for each staked users.\n    function getPercentage(uint256 _investedAmount, uint256 _tempTotalStaking)\n        internal\n        pure\n        returns (uint256 percentage)\n    {\n        return ((_investedAmount * 1000000000000) / _tempTotalStaking);\n        // return (tempPercentage * 100);\n    }\n\n    // Mint the remaining token to respective user after the project completed.\n    function mintRemainingToken(\n        uint256 _totalProjectToken,\n        address projectOwnerAddress\n    ) public {\n        // Only owner can call this function\n        require(msg.sender == owner, \"caller must be the owner\");\n\n        // Need to burn all the token\n        require(stakingBalToBeBurned == 0, \"Need to burn all the token\");\n\n        // Check the total staked token is equal or greater than total project token.\n        uint256 tempTotalStaking = totalStakeBalance();\n        require(\n            tempTotalStaking >= _totalProjectToken,\n            \"total Staked is should not be lesser than project token.\"\n        );\n\n        uint256 projectCompletedMintedToken;\n\n        // Issue tokens to all stakers\n        for (uint256 i = 0; i < stakers.length; i++) {\n            address recipient = stakers[i];\n            uint256 percentage = getPercentage(\n                stakingBalance[recipient],\n                tempTotalStaking\n            );\n            uint256 allocatedTokens = (_totalProjectToken * percentage) /\n                1000000000000;\n            uint256 balance = (stakingBalance[recipient] - allocatedTokens);\n            if (balance > 0) {\n                pToken.mint(recipient, balance);\n                delete stakingBalance[recipient];\n                delete hasStaked[recipient];\n                totalMintedToken = totalMintedToken + balance;\n                projectCompletedMintedToken =\n                    projectCompletedMintedToken +\n                    balance;\n            }\n        }\n        delete stakers;\n\n        // Sending the remaing token staked to project owner.\n        // check the totalstaking - projectCompletedMintedToken.\n        uint256 sendTokenToProjectOwner = tempTotalStaking -\n            projectCompletedMintedToken;\n        // require(\n        //     sendTokenToProjectOwner == _totalProjectToken,\n        //     \"calculation mistake..\"\n        // );\n        pToken.mint(projectOwnerAddress, sendTokenToProjectOwner);\n    }\n\n    // Using mint function return all the remaining tokens to staked users wallet.\n\n    // function mintRemainingToken(mapping(address => uint256) sendWalletAddresses)\n    //     public\n    //     returns (bool success)\n    // {\n    //     // Only owner can call this function\n    //     require(msg.sender == owner, \"caller must be the owner\");\n    // }\n\n    // Issuing Tokens\n    // function issueTokens() public {\n    //     // Only owner can call this function\n    //     require(msg.sender == owner, \"caller must be the owner\");\n\n    //     // Issue tokens to all stakers\n    //     for (uint256 i = 0; i < stakers.length; i++) {\n    //         address recipient = stakers[i];\n    //         uint256 balance = stakingBalance[recipient];\n    //         if (balance > 0) {\n    //             dappToken.transfer(recipient, balance);\n    //         }\n    //     }\n    // }\n}\n",
  "sourcePath": "/Users/aravinth/Repo/codegama/blockchain/token-buy-sell/src/contracts/StakingPoll.sol",
  "compiler": {
    "name": "solc",
    "version": "0.8.6+commit.11564f7e.Emscripten.clang"
  },
  "schemaVersion": "3.2.3",
  "updatedAt": "2021-08-09T20:28:45.602Z",
  "networkType": "ethereum",
  "devdoc": {
    "kind": "dev",
    "methods": {},
    "version": 1
  },
  "userdoc": {
    "kind": "user",
    "methods": {},
    "version": 1
  }
}